{
  "contractName": "NFT",
  "abi": [
    {
      "inputs": [],
      "stateMutability": "nonpayable",
      "type": "constructor"
    },
    {
      "anonymous": false,
      "inputs": [
        {
          "indexed": true,
          "internalType": "address",
          "name": "owner",
          "type": "address"
        },
        {
          "indexed": true,
          "internalType": "address",
          "name": "approved",
          "type": "address"
        },
        {
          "indexed": true,
          "internalType": "uint256",
          "name": "tokenId",
          "type": "uint256"
        }
      ],
      "name": "Approval",
      "type": "event"
    },
    {
      "anonymous": false,
      "inputs": [
        {
          "indexed": true,
          "internalType": "address",
          "name": "owner",
          "type": "address"
        },
        {
          "indexed": true,
          "internalType": "address",
          "name": "operator",
          "type": "address"
        },
        {
          "indexed": false,
          "internalType": "bool",
          "name": "approved",
          "type": "bool"
        }
      ],
      "name": "ApprovalForAll",
      "type": "event"
    },
    {
      "anonymous": false,
      "inputs": [
        {
          "indexed": true,
          "internalType": "address",
          "name": "previousOwner",
          "type": "address"
        },
        {
          "indexed": true,
          "internalType": "address",
          "name": "newOwner",
          "type": "address"
        }
      ],
      "name": "OwnershipTransferred",
      "type": "event"
    },
    {
      "anonymous": false,
      "inputs": [
        {
          "indexed": true,
          "internalType": "address",
          "name": "from",
          "type": "address"
        },
        {
          "indexed": true,
          "internalType": "address",
          "name": "to",
          "type": "address"
        },
        {
          "indexed": true,
          "internalType": "uint256",
          "name": "tokenId",
          "type": "uint256"
        }
      ],
      "name": "Transfer",
      "type": "event"
    },
    {
      "anonymous": false,
      "inputs": [
        {
          "indexed": false,
          "internalType": "address",
          "name": "user",
          "type": "address"
        }
      ],
      "name": "removeBanListStatus",
      "type": "event"
    },
    {
      "anonymous": false,
      "inputs": [
        {
          "indexed": false,
          "internalType": "address",
          "name": "user",
          "type": "address"
        }
      ],
      "name": "removeWhiteListStatus",
      "type": "event"
    },
    {
      "anonymous": false,
      "inputs": [
        {
          "indexed": false,
          "internalType": "string",
          "name": "message",
          "type": "string"
        }
      ],
      "name": "reset",
      "type": "event"
    },
    {
      "anonymous": false,
      "inputs": [
        {
          "indexed": false,
          "internalType": "address",
          "name": "user",
          "type": "address"
        }
      ],
      "name": "setBanListStatus",
      "type": "event"
    },
    {
      "anonymous": false,
      "inputs": [
        {
          "indexed": false,
          "internalType": "address",
          "name": "user",
          "type": "address"
        }
      ],
      "name": "setWhiteListStatus",
      "type": "event"
    },
    {
      "anonymous": false,
      "inputs": [
        {
          "indexed": false,
          "internalType": "string",
          "name": "name",
          "type": "string"
        },
        {
          "indexed": false,
          "internalType": "uint256",
          "name": "price",
          "type": "uint256"
        },
        {
          "indexed": false,
          "internalType": "string",
          "name": "power",
          "type": "string"
        }
      ],
      "name": "updateNFT",
      "type": "event"
    },
    {
      "inputs": [
        {
          "internalType": "address",
          "name": "to",
          "type": "address"
        },
        {
          "internalType": "uint256",
          "name": "tokenId",
          "type": "uint256"
        }
      ],
      "name": "approve",
      "outputs": [],
      "stateMutability": "nonpayable",
      "type": "function"
    },
    {
      "inputs": [
        {
          "internalType": "address",
          "name": "owner",
          "type": "address"
        }
      ],
      "name": "balanceOf",
      "outputs": [
        {
          "internalType": "uint256",
          "name": "",
          "type": "uint256"
        }
      ],
      "stateMutability": "view",
      "type": "function",
      "constant": true
    },
    {
      "inputs": [],
      "name": "banlistCounter",
      "outputs": [
        {
          "internalType": "uint256",
          "name": "",
          "type": "uint256"
        }
      ],
      "stateMutability": "view",
      "type": "function",
      "constant": true
    },
    {
      "inputs": [
        {
          "internalType": "uint256",
          "name": "tokenId",
          "type": "uint256"
        }
      ],
      "name": "getApproved",
      "outputs": [
        {
          "internalType": "address",
          "name": "",
          "type": "address"
        }
      ],
      "stateMutability": "view",
      "type": "function",
      "constant": true
    },
    {
      "inputs": [
        {
          "internalType": "address",
          "name": "owner",
          "type": "address"
        },
        {
          "internalType": "address",
          "name": "operator",
          "type": "address"
        }
      ],
      "name": "isApprovedForAll",
      "outputs": [
        {
          "internalType": "bool",
          "name": "",
          "type": "bool"
        }
      ],
      "stateMutability": "view",
      "type": "function",
      "constant": true
    },
    {
      "inputs": [
        {
          "internalType": "uint256",
          "name": "",
          "type": "uint256"
        }
      ],
      "name": "metadataNft",
      "outputs": [
        {
          "internalType": "string",
          "name": "name",
          "type": "string"
        },
        {
          "internalType": "uint256",
          "name": "price",
          "type": "uint256"
        },
        {
          "internalType": "string",
          "name": "power",
          "type": "string"
        }
      ],
      "stateMutability": "view",
      "type": "function",
      "constant": true
    },
    {
      "inputs": [],
      "name": "name",
      "outputs": [
        {
          "internalType": "string",
          "name": "",
          "type": "string"
        }
      ],
      "stateMutability": "view",
      "type": "function",
      "constant": true
    },
    {
      "inputs": [],
      "name": "owner",
      "outputs": [
        {
          "internalType": "address",
          "name": "",
          "type": "address"
        }
      ],
      "stateMutability": "view",
      "type": "function",
      "constant": true
    },
    {
      "inputs": [
        {
          "internalType": "uint256",
          "name": "tokenId",
          "type": "uint256"
        }
      ],
      "name": "ownerOf",
      "outputs": [
        {
          "internalType": "address",
          "name": "",
          "type": "address"
        }
      ],
      "stateMutability": "view",
      "type": "function",
      "constant": true
    },
    {
      "inputs": [],
      "name": "renounceOwnership",
      "outputs": [],
      "stateMutability": "nonpayable",
      "type": "function"
    },
    {
      "inputs": [
        {
          "internalType": "address",
          "name": "from",
          "type": "address"
        },
        {
          "internalType": "address",
          "name": "to",
          "type": "address"
        },
        {
          "internalType": "uint256",
          "name": "tokenId",
          "type": "uint256"
        }
      ],
      "name": "safeTransferFrom",
      "outputs": [],
      "stateMutability": "nonpayable",
      "type": "function"
    },
    {
      "inputs": [
        {
          "internalType": "address",
          "name": "from",
          "type": "address"
        },
        {
          "internalType": "address",
          "name": "to",
          "type": "address"
        },
        {
          "internalType": "uint256",
          "name": "tokenId",
          "type": "uint256"
        },
        {
          "internalType": "bytes",
          "name": "_data",
          "type": "bytes"
        }
      ],
      "name": "safeTransferFrom",
      "outputs": [],
      "stateMutability": "nonpayable",
      "type": "function"
    },
    {
      "inputs": [
        {
          "internalType": "address",
          "name": "operator",
          "type": "address"
        },
        {
          "internalType": "bool",
          "name": "approved",
          "type": "bool"
        }
      ],
      "name": "setApprovalForAll",
      "outputs": [],
      "stateMutability": "nonpayable",
      "type": "function"
    },
    {
      "inputs": [
        {
          "internalType": "bytes4",
          "name": "interfaceId",
          "type": "bytes4"
        }
      ],
      "name": "supportsInterface",
      "outputs": [
        {
          "internalType": "bool",
          "name": "",
          "type": "bool"
        }
      ],
      "stateMutability": "view",
      "type": "function",
      "constant": true
    },
    {
      "inputs": [],
      "name": "symbol",
      "outputs": [
        {
          "internalType": "string",
          "name": "",
          "type": "string"
        }
      ],
      "stateMutability": "view",
      "type": "function",
      "constant": true
    },
    {
      "inputs": [
        {
          "internalType": "uint256",
          "name": "tokenId",
          "type": "uint256"
        }
      ],
      "name": "tokenURI",
      "outputs": [
        {
          "internalType": "string",
          "name": "",
          "type": "string"
        }
      ],
      "stateMutability": "view",
      "type": "function",
      "constant": true
    },
    {
      "inputs": [
        {
          "internalType": "address",
          "name": "from",
          "type": "address"
        },
        {
          "internalType": "address",
          "name": "to",
          "type": "address"
        },
        {
          "internalType": "uint256",
          "name": "tokenId",
          "type": "uint256"
        }
      ],
      "name": "transferFrom",
      "outputs": [],
      "stateMutability": "nonpayable",
      "type": "function"
    },
    {
      "inputs": [
        {
          "internalType": "address",
          "name": "newOwner",
          "type": "address"
        }
      ],
      "name": "transferOwnership",
      "outputs": [],
      "stateMutability": "nonpayable",
      "type": "function"
    },
    {
      "inputs": [],
      "name": "whitelistCounter",
      "outputs": [
        {
          "internalType": "uint256",
          "name": "",
          "type": "uint256"
        }
      ],
      "stateMutability": "view",
      "type": "function",
      "constant": true
    },
    {
      "inputs": [
        {
          "internalType": "address",
          "name": "user",
          "type": "address"
        }
      ],
      "name": "setWhiteList",
      "outputs": [],
      "stateMutability": "nonpayable",
      "type": "function"
    },
    {
      "inputs": [
        {
          "internalType": "address",
          "name": "user",
          "type": "address"
        }
      ],
      "name": "removeWhiteList",
      "outputs": [],
      "stateMutability": "nonpayable",
      "type": "function"
    },
    {
      "inputs": [],
      "name": "wlCounter",
      "outputs": [
        {
          "internalType": "uint256",
          "name": "",
          "type": "uint256"
        }
      ],
      "stateMutability": "view",
      "type": "function",
      "constant": true
    },
    {
      "inputs": [
        {
          "internalType": "address",
          "name": "to",
          "type": "address"
        },
        {
          "internalType": "uint256",
          "name": "tokenId",
          "type": "uint256"
        },
        {
          "internalType": "string",
          "name": "name",
          "type": "string"
        },
        {
          "internalType": "uint256",
          "name": "price",
          "type": "uint256"
        },
        {
          "internalType": "string",
          "name": "power",
          "type": "string"
        }
      ],
      "name": "safeMint",
      "outputs": [],
      "stateMutability": "nonpayable",
      "type": "function"
    },
    {
      "inputs": [
        {
          "internalType": "uint256",
          "name": "tokenId",
          "type": "uint256"
        },
        {
          "internalType": "string",
          "name": "new_name",
          "type": "string"
        },
        {
          "internalType": "uint256",
          "name": "new_price",
          "type": "uint256"
        },
        {
          "internalType": "string",
          "name": "new_power",
          "type": "string"
        }
      ],
      "name": "updatenft",
      "outputs": [],
      "stateMutability": "nonpayable",
      "type": "function"
    },
    {
      "inputs": [
        {
          "internalType": "address",
          "name": "user",
          "type": "address"
        }
      ],
      "name": "setBanList",
      "outputs": [],
      "stateMutability": "nonpayable",
      "type": "function"
    },
    {
      "inputs": [
        {
          "internalType": "address",
          "name": "user",
          "type": "address"
        }
      ],
      "name": "unBanList",
      "outputs": [],
      "stateMutability": "nonpayable",
      "type": "function"
    }
  ],
  "bytecode": "0x60806040526000600a556000600b553480156200001b57600080fd5b506040518060400160405280600481526020017f4e654b6f000000000000000000000000000000000000000000000000000000008152506040518060400160405280600281526020017f4e4b0000000000000000000000000000000000000000000000000000000000008152508160009080519060200190620000a0929190620001b0565b508060019080519060200190620000b9929190620001b0565b505050620000dc620000d0620000e260201b60201c565b620000ea60201b60201c565b620002c5565b600033905090565b6000600660009054906101000a900473ffffffffffffffffffffffffffffffffffffffff16905081600660006101000a81548173ffffffffffffffffffffffffffffffffffffffff021916908373ffffffffffffffffffffffffffffffffffffffff1602179055508173ffffffffffffffffffffffffffffffffffffffff168173ffffffffffffffffffffffffffffffffffffffff167f8be0079c531659141344cd1fd0a4f28419497f9722a3daafe3b4186f6b6457e060405160405180910390a35050565b828054620001be906200028f565b90600052602060002090601f016020900481019282620001e257600085556200022e565b82601f10620001fd57805160ff19168380011785556200022e565b828001600101855582156200022e579182015b828111156200022d57825182559160200191906001019062000210565b5b5090506200023d919062000241565b5090565b5b808211156200025c57600081600090555060010162000242565b5090565b7f4e487b7100000000000000000000000000000000000000000000000000000000600052602260045260246000fd5b60006002820490506001821680620002a857607f821691505b60208210811415620002bf57620002be62000260565b5b50919050565b613dd680620002d56000396000f3fe608060405234801561001057600080fd5b506004361061018e5760003560e01c80636352211e116100de57806395d89b4111610097578063c87b56dd11610071578063c87b56dd14610459578063cea0d9f514610489578063e985e9c5146104a7578063f2fde38b146104d75761018e565b806395d89b4114610403578063a22cb46514610421578063b88d4fde1461043d5761018e565b80636352211e146103435780636be7293d1461037357806370a082311461038f578063713abeb9146103bf578063715018a6146103db5780638da5cb5b146103e55761018e565b80632042e5c21161014b57806326f27e6d1161012557806326f27e6d146102bb57806339e899ee146102d957806342842e0e146102f557806358bee568146103115761018e565b80632042e5c214610265578063215bf4611461028157806323b872dd1461029f5761018e565b806301ffc9a71461019357806306fdde03146101c3578063081812fc146101e1578063095ea7b3146102115780631a204df91461022d5780631b5bc13514610249575b600080fd5b6101ad60048036038101906101a8919061279b565b6104f3565b6040516101ba91906127e3565b60405180910390f35b6101cb6105d5565b6040516101d89190612897565b60405180910390f35b6101fb60048036038101906101f691906128ef565b610667565b604051610208919061295d565b60405180910390f35b61022b600480360381019061022691906129a4565b6106ec565b005b61024760048036038101906102429190612b19565b610804565b005b610263600480360381019061025e9190612bcc565b610993565b005b61027f600480360381019061027a9190612bcc565b610b67565b005b610289610d3b565b6040516102969190612c08565b60405180910390f35b6102b960048036038101906102b49190612c23565b610d45565b005b6102c3610da5565b6040516102d09190612c08565b60405180910390f35b6102f360048036038101906102ee9190612bcc565b610dab565b005b61030f600480360381019061030a9190612c23565b610f43565b005b61032b600480360381019061032691906128ef565b610f63565b60405161033a93929190612c76565b60405180910390f35b61035d600480360381019061035891906128ef565b61109d565b60405161036a919061295d565b60405180910390f35b61038d60048036038101906103889190612cbb565b61114f565b005b6103a960048036038101906103a49190612bcc565b6112a7565b6040516103b69190612c08565b60405180910390f35b6103d960048036038101906103d49190612bcc565b61135f565b005b6103e36114f7565b005b6103ed61157f565b6040516103fa919061295d565b60405180910390f35b61040b6115a9565b6040516104189190612897565b60405180910390f35b61043b60048036038101906104369190612d86565b61163b565b005b61045760048036038101906104529190612e67565b6117bc565b005b610473600480360381019061046e91906128ef565b61181e565b6040516104809190612897565b60405180910390f35b6104916118c5565b60405161049e9190612c08565b60405180910390f35b6104c160048036038101906104bc9190612eea565b6118cb565b6040516104ce91906127e3565b60405180910390f35b6104f160048036038101906104ec9190612bcc565b61195f565b005b60007f80ac58cd000000000000000000000000000000000000000000000000000000007bffffffffffffffffffffffffffffffffffffffffffffffffffffffff1916827bffffffffffffffffffffffffffffffffffffffffffffffffffffffff191614806105be57507f5b5e139f000000000000000000000000000000000000000000000000000000007bffffffffffffffffffffffffffffffffffffffffffffffffffffffff1916827bffffffffffffffffffffffffffffffffffffffffffffffffffffffff1916145b806105ce57506105cd82611a57565b5b9050919050565b6060600080546105e490612f59565b80601f016020809104026020016040519081016040528092919081815260200182805461061090612f59565b801561065d5780601f106106325761010080835404028352916020019161065d565b820191906000526020600020905b81548152906001019060200180831161064057829003601f168201915b5050505050905090565b600061067282611ac1565b6106b1576040517f08c379a00000000000000000000000000000000000000000000000000000000081526004016106a890612ffd565b60405180910390fd5b6004600083815260200190815260200160002060009054906101000a900473ffffffffffffffffffffffffffffffffffffffff169050919050565b60006106f78261109d565b90508073ffffffffffffffffffffffffffffffffffffffff168373ffffffffffffffffffffffffffffffffffffffff161415610768576040517f08c379a000000000000000000000000000000000000000000000000000000000815260040161075f9061308f565b60405180910390fd5b8073ffffffffffffffffffffffffffffffffffffffff16610787611b2d565b73ffffffffffffffffffffffffffffffffffffffff1614806107b657506107b5816107b0611b2d565b6118cb565b5b6107f5576040517f08c379a00000000000000000000000000000000000000000000000000000000081526004016107ec90613121565b60405180910390fd5b6107ff8383611b35565b505050565b600073ffffffffffffffffffffffffffffffffffffffff168573ffffffffffffffffffffffffffffffffffffffff161415610874576040517f08c379a000000000000000000000000000000000000000000000000000000000815260040161086b9061318d565b60405180910390fd5b60011515600760008773ffffffffffffffffffffffffffffffffffffffff1673ffffffffffffffffffffffffffffffffffffffff16815260200190815260200160002060009054906101000a900460ff16151514610907576040517f08c379a00000000000000000000000000000000000000000000000000000000081526004016108fe906131f9565b60405180910390fd5b600060405180606001604052808581526020018481526020018381525090506109308686611bee565b8060086000878152602001908152602001600020600082015181600001908051906020019061096092919061268c565b5060208201518160010155604082015181600201908051906020019061098792919061268c565b50905050505050505050565b61099b611b2d565b73ffffffffffffffffffffffffffffffffffffffff166109b961157f565b73ffffffffffffffffffffffffffffffffffffffff1614610a0f576040517f08c379a0000000000000000000000000000000000000000000000000000000008152600401610a0690613265565b60405180910390fd5b600073ffffffffffffffffffffffffffffffffffffffff168173ffffffffffffffffffffffffffffffffffffffff161415610a7f576040517f08c379a0000000000000000000000000000000000000000000000000000000008152600401610a769061318d565b60405180910390fd5b6000600b5411610ac4576040517f08c379a0000000000000000000000000000000000000000000000000000000008152600401610abb906132d1565b60405180910390fd5b600960008273ffffffffffffffffffffffffffffffffffffffff1673ffffffffffffffffffffffffffffffffffffffff16815260200190815260200160002060006101000a81549060ff02191690556001600b6000828254610b269190613320565b925050819055507f2d6661b5671d6665ea41fabd40dcb632381b0247bba6ad0dd0f1bee806e05c2381604051610b5c919061295d565b60405180910390a150565b610b6f611b2d565b73ffffffffffffffffffffffffffffffffffffffff16610b8d61157f565b73ffffffffffffffffffffffffffffffffffffffff1614610be3576040517f08c379a0000000000000000000000000000000000000000000000000000000008152600401610bda90613265565b60405180910390fd5b600073ffffffffffffffffffffffffffffffffffffffff168173ffffffffffffffffffffffffffffffffffffffff161415610c53576040517f08c379a0000000000000000000000000000000000000000000000000000000008152600401610c4a9061318d565b60405180910390fd5b6000600a5411610c98576040517f08c379a0000000000000000000000000000000000000000000000000000000008152600401610c8f906133c2565b60405180910390fd5b600760008273ffffffffffffffffffffffffffffffffffffffff1673ffffffffffffffffffffffffffffffffffffffff16815260200190815260200160002060006101000a81549060ff02191690556001600a6000828254610cfa91906133e2565b925050819055507f9dbb95295d1d16c1ae787eb8f4a6259af6b1a671bb0591729d2595ddcbcc817781604051610d30919061295d565b60405180910390a150565b6000600a54905090565b610d56610d50611b2d565b82611c0c565b610d95576040517f08c379a0000000000000000000000000000000000000000000000000000000008152600401610d8c90613488565b60405180910390fd5b610da0838383611cea565b505050565b600a5481565b610db3611b2d565b73ffffffffffffffffffffffffffffffffffffffff16610dd161157f565b73ffffffffffffffffffffffffffffffffffffffff1614610e27576040517f08c379a0000000000000000000000000000000000000000000000000000000008152600401610e1e90613265565b60405180910390fd5b600073ffffffffffffffffffffffffffffffffffffffff168173ffffffffffffffffffffffffffffffffffffffff161415610e97576040517f08c379a0000000000000000000000000000000000000000000000000000000008152600401610e8e9061318d565b60405180910390fd5b6001600760008373ffffffffffffffffffffffffffffffffffffffff1673ffffffffffffffffffffffffffffffffffffffff16815260200190815260200160002060006101000a81548160ff0219169083151502179055506001600a6000828254610f029190613320565b925050819055507f1e7df6907392ac808f34af305a213fb6cbade2a226c37680af3d2f7b1452fcd281604051610f38919061295d565b60405180910390a150565b610f5e838383604051806020016040528060008152506117bc565b505050565b6008602052806000526040600020600091509050806000018054610f8690612f59565b80601f0160208091040260200160405190810160405280929190818152602001828054610fb290612f59565b8015610fff5780601f10610fd457610100808354040283529160200191610fff565b820191906000526020600020905b815481529060010190602001808311610fe257829003601f168201915b50505050509080600101549080600201805461101a90612f59565b80601f016020809104026020016040519081016040528092919081815260200182805461104690612f59565b80156110935780601f1061106857610100808354040283529160200191611093565b820191906000526020600020905b81548152906001019060200180831161107657829003601f168201915b5050505050905083565b6000806002600084815260200190815260200160002060009054906101000a900473ffffffffffffffffffffffffffffffffffffffff169050600073ffffffffffffffffffffffffffffffffffffffff168173ffffffffffffffffffffffffffffffffffffffff161415611146576040517f08c379a000000000000000000000000000000000000000000000000000000000815260040161113d9061351a565b60405180910390fd5b80915050919050565b611157611b2d565b73ffffffffffffffffffffffffffffffffffffffff1661117561157f565b73ffffffffffffffffffffffffffffffffffffffff16146111cb576040517f08c379a00000000000000000000000000000000000000000000000000000000081526004016111c290613265565b60405180910390fd5b6111d484611ac1565b611213576040517f08c379a000000000000000000000000000000000000000000000000000000000815260040161120a90613586565b60405180910390fd5b60006008600086815260200190815260200160002090508381600001908051906020019061124292919061268c565b508281600101819055508181600201908051906020019061126492919061268c565b507fa76aba151cbc203d9805e5939c82127150ae8ace621cb510ce51676834c52f5f84848460405161129893929190612c76565b60405180910390a15050505050565b60008073ffffffffffffffffffffffffffffffffffffffff168273ffffffffffffffffffffffffffffffffffffffff161415611318576040517f08c379a000000000000000000000000000000000000000000000000000000000815260040161130f90613618565b60405180910390fd5b600360008373ffffffffffffffffffffffffffffffffffffffff1673ffffffffffffffffffffffffffffffffffffffff168152602001908152602001600020549050919050565b611367611b2d565b73ffffffffffffffffffffffffffffffffffffffff1661138561157f565b73ffffffffffffffffffffffffffffffffffffffff16146113db576040517f08c379a00000000000000000000000000000000000000000000000000000000081526004016113d290613265565b60405180910390fd5b600073ffffffffffffffffffffffffffffffffffffffff168173ffffffffffffffffffffffffffffffffffffffff16141561144b576040517f08c379a00000000000000000000000000000000000000000000000000000000081526004016114429061318d565b60405180910390fd5b6001600960008373ffffffffffffffffffffffffffffffffffffffff1673ffffffffffffffffffffffffffffffffffffffff16815260200190815260200160002060006101000a81548160ff0219169083151502179055506001600b60008282546114b69190613320565b925050819055507f3c9e52ce7487bb32cf5992209ecae917ef078ea9c667a9870a5dd0fc13452a08816040516114ec919061295d565b60405180910390a150565b6114ff611b2d565b73ffffffffffffffffffffffffffffffffffffffff1661151d61157f565b73ffffffffffffffffffffffffffffffffffffffff1614611573576040517f08c379a000000000000000000000000000000000000000000000000000000000815260040161156a90613265565b60405180910390fd5b61157d6000611f46565b565b6000600660009054906101000a900473ffffffffffffffffffffffffffffffffffffffff16905090565b6060600180546115b890612f59565b80601f01602080910402602001604051908101604052809291908181526020018280546115e490612f59565b80156116315780601f1061160657610100808354040283529160200191611631565b820191906000526020600020905b81548152906001019060200180831161161457829003601f168201915b5050505050905090565b611643611b2d565b73ffffffffffffffffffffffffffffffffffffffff168273ffffffffffffffffffffffffffffffffffffffff1614156116b1576040517f08c379a00000000000000000000000000000000000000000000000000000000081526004016116a890613684565b60405180910390fd5b80600560006116be611b2d565b73ffffffffffffffffffffffffffffffffffffffff1673ffffffffffffffffffffffffffffffffffffffff16815260200190815260200160002060008473ffffffffffffffffffffffffffffffffffffffff1673ffffffffffffffffffffffffffffffffffffffff16815260200190815260200160002060006101000a81548160ff0219169083151502179055508173ffffffffffffffffffffffffffffffffffffffff1661176b611b2d565b73ffffffffffffffffffffffffffffffffffffffff167f17307eab39ab6107e8899845ad3d59bd9653f200f220920489ca2b5937696c31836040516117b091906127e3565b60405180910390a35050565b6117cd6117c7611b2d565b83611c0c565b61180c576040517f08c379a000000000000000000000000000000000000000000000000000000000815260040161180390613488565b60405180910390fd5b6118188484848461200c565b50505050565b606061182982611ac1565b611868576040517f08c379a000000000000000000000000000000000000000000000000000000000815260040161185f90613716565b60405180910390fd5b6000611872612068565b9050600081511161189257604051806020016040528060008152506118bd565b8061189c8461207f565b6040516020016118ad929190613772565b6040516020818303038152906040525b915050919050565b600b5481565b6000600560008473ffffffffffffffffffffffffffffffffffffffff1673ffffffffffffffffffffffffffffffffffffffff16815260200190815260200160002060008373ffffffffffffffffffffffffffffffffffffffff1673ffffffffffffffffffffffffffffffffffffffff16815260200190815260200160002060009054906101000a900460ff16905092915050565b611967611b2d565b73ffffffffffffffffffffffffffffffffffffffff1661198561157f565b73ffffffffffffffffffffffffffffffffffffffff16146119db576040517f08c379a00000000000000000000000000000000000000000000000000000000081526004016119d290613265565b60405180910390fd5b600073ffffffffffffffffffffffffffffffffffffffff168173ffffffffffffffffffffffffffffffffffffffff161415611a4b576040517f08c379a0000000000000000000000000000000000000000000000000000000008152600401611a4290613808565b60405180910390fd5b611a5481611f46565b50565b60007f01ffc9a7000000000000000000000000000000000000000000000000000000007bffffffffffffffffffffffffffffffffffffffffffffffffffffffff1916827bffffffffffffffffffffffffffffffffffffffffffffffffffffffff1916149050919050565b60008073ffffffffffffffffffffffffffffffffffffffff166002600084815260200190815260200160002060009054906101000a900473ffffffffffffffffffffffffffffffffffffffff1673ffffffffffffffffffffffffffffffffffffffff1614159050919050565b600033905090565b816004600083815260200190815260200160002060006101000a81548173ffffffffffffffffffffffffffffffffffffffff021916908373ffffffffffffffffffffffffffffffffffffffff160217905550808273ffffffffffffffffffffffffffffffffffffffff16611ba88361109d565b73ffffffffffffffffffffffffffffffffffffffff167f8c5be1e5ebec7d5bd14f71427d1e84f3dd0314c0f7b2291e5b200ac8c7c3b92560405160405180910390a45050565b611c088282604051806020016040528060008152506121e0565b5050565b6000611c1782611ac1565b611c56576040517f08c379a0000000000000000000000000000000000000000000000000000000008152600401611c4d9061389a565b60405180910390fd5b6000611c618361109d565b90508073ffffffffffffffffffffffffffffffffffffffff168473ffffffffffffffffffffffffffffffffffffffff161480611cd057508373ffffffffffffffffffffffffffffffffffffffff16611cb884610667565b73ffffffffffffffffffffffffffffffffffffffff16145b80611ce15750611ce081856118cb565b5b91505092915050565b8273ffffffffffffffffffffffffffffffffffffffff16611d0a8261109d565b73ffffffffffffffffffffffffffffffffffffffff1614611d60576040517f08c379a0000000000000000000000000000000000000000000000000000000008152600401611d579061392c565b60405180910390fd5b600073ffffffffffffffffffffffffffffffffffffffff168273ffffffffffffffffffffffffffffffffffffffff161415611dd0576040517f08c379a0000000000000000000000000000000000000000000000000000000008152600401611dc7906139be565b60405180910390fd5b611ddb83838361223b565b611de6600082611b35565b6001600360008573ffffffffffffffffffffffffffffffffffffffff1673ffffffffffffffffffffffffffffffffffffffff1681526020019081526020016000206000828254611e3691906133e2565b925050819055506001600360008473ffffffffffffffffffffffffffffffffffffffff1673ffffffffffffffffffffffffffffffffffffffff1681526020019081526020016000206000828254611e8d9190613320565b92505081905550816002600083815260200190815260200160002060006101000a81548173ffffffffffffffffffffffffffffffffffffffff021916908373ffffffffffffffffffffffffffffffffffffffff160217905550808273ffffffffffffffffffffffffffffffffffffffff168473ffffffffffffffffffffffffffffffffffffffff167fddf252ad1be2c89b69c2b068fc378daa952ba7f163c4a11628f55a4df523b3ef60405160405180910390a4505050565b6000600660009054906101000a900473ffffffffffffffffffffffffffffffffffffffff16905081600660006101000a81548173ffffffffffffffffffffffffffffffffffffffff021916908373ffffffffffffffffffffffffffffffffffffffff1602179055508173ffffffffffffffffffffffffffffffffffffffff168173ffffffffffffffffffffffffffffffffffffffff167f8be0079c531659141344cd1fd0a4f28419497f9722a3daafe3b4186f6b6457e060405160405180910390a35050565b612017848484611cea565b61202384848484612323565b612062576040517f08c379a000000000000000000000000000000000000000000000000000000000815260040161205990613a50565b60405180910390fd5b50505050565b606060405180602001604052806000815250905090565b606060008214156120c7576040518060400160405280600181526020017f300000000000000000000000000000000000000000000000000000000000000081525090506121db565b600082905060005b600082146120f95780806120e290613a70565b915050600a826120f29190613ae8565b91506120cf565b60008167ffffffffffffffff811115612115576121146129ee565b5b6040519080825280601f01601f1916602001820160405280156121475781602001600182028036833780820191505090505b5090505b600085146121d45760018261216091906133e2565b9150600a8561216f9190613b19565b603061217b9190613320565b60f81b81838151811061219157612190613b4a565b5b60200101907effffffffffffffffffffffffffffffffffffffffffffffffffffffffffffff1916908160001a905350600a856121cd9190613ae8565b945061214b565b8093505050505b919050565b6121ea83836124ab565b6121f76000848484612323565b612236576040517f08c379a000000000000000000000000000000000000000000000000000000000815260040161222d90613a50565b60405180910390fd5b505050565b600960008473ffffffffffffffffffffffffffffffffffffffff1673ffffffffffffffffffffffffffffffffffffffff16815260200190815260200160002060009054906101000a900460ff161580156122df5750600960008373ffffffffffffffffffffffffffffffffffffffff1673ffffffffffffffffffffffffffffffffffffffff16815260200190815260200160002060009054906101000a900460ff16155b61231e576040517f08c379a000000000000000000000000000000000000000000000000000000000815260040161231590613bc5565b60405180910390fd5b505050565b60006123448473ffffffffffffffffffffffffffffffffffffffff16612679565b1561249e578373ffffffffffffffffffffffffffffffffffffffff1663150b7a0261236d611b2d565b8786866040518563ffffffff1660e01b815260040161238f9493929190613c3a565b6020604051808303816000875af19250505080156123cb57506040513d601f19601f820116820180604052508101906123c89190613c9b565b60015b61244e573d80600081146123fb576040519150601f19603f3d011682016040523d82523d6000602084013e612400565b606091505b50600081511415612446576040517f08c379a000000000000000000000000000000000000000000000000000000000815260040161243d90613a50565b60405180910390fd5b805181602001fd5b63150b7a0260e01b7bffffffffffffffffffffffffffffffffffffffffffffffffffffffff1916817bffffffffffffffffffffffffffffffffffffffffffffffffffffffff1916149150506124a3565b600190505b949350505050565b600073ffffffffffffffffffffffffffffffffffffffff168273ffffffffffffffffffffffffffffffffffffffff16141561251b576040517f08c379a000000000000000000000000000000000000000000000000000000000815260040161251290613d14565b60405180910390fd5b61252481611ac1565b15612564576040517f08c379a000000000000000000000000000000000000000000000000000000000815260040161255b90613d80565b60405180910390fd5b6125706000838361223b565b6001600360008473ffffffffffffffffffffffffffffffffffffffff1673ffffffffffffffffffffffffffffffffffffffff16815260200190815260200160002060008282546125c09190613320565b92505081905550816002600083815260200190815260200160002060006101000a81548173ffffffffffffffffffffffffffffffffffffffff021916908373ffffffffffffffffffffffffffffffffffffffff160217905550808273ffffffffffffffffffffffffffffffffffffffff16600073ffffffffffffffffffffffffffffffffffffffff167fddf252ad1be2c89b69c2b068fc378daa952ba7f163c4a11628f55a4df523b3ef60405160405180910390a45050565b600080823b905060008111915050919050565b82805461269890612f59565b90600052602060002090601f0160209004810192826126ba5760008555612701565b82601f106126d357805160ff1916838001178555612701565b82800160010185558215612701579182015b828111156127005782518255916020019190600101906126e5565b5b50905061270e9190612712565b5090565b5b8082111561272b576000816000905550600101612713565b5090565b6000604051905090565b600080fd5b600080fd5b60007fffffffff0000000000000000000000000000000000000000000000000000000082169050919050565b61277881612743565b811461278357600080fd5b50565b6000813590506127958161276f565b92915050565b6000602082840312156127b1576127b0612739565b5b60006127bf84828501612786565b91505092915050565b60008115159050919050565b6127dd816127c8565b82525050565b60006020820190506127f860008301846127d4565b92915050565b600081519050919050565b600082825260208201905092915050565b60005b8381101561283857808201518184015260208101905061281d565b83811115612847576000848401525b50505050565b6000601f19601f8301169050919050565b6000612869826127fe565b6128738185612809565b935061288381856020860161281a565b61288c8161284d565b840191505092915050565b600060208201905081810360008301526128b1818461285e565b905092915050565b6000819050919050565b6128cc816128b9565b81146128d757600080fd5b50565b6000813590506128e9816128c3565b92915050565b60006020828403121561290557612904612739565b5b6000612913848285016128da565b91505092915050565b600073ffffffffffffffffffffffffffffffffffffffff82169050919050565b60006129478261291c565b9050919050565b6129578161293c565b82525050565b6000602082019050612972600083018461294e565b92915050565b6129818161293c565b811461298c57600080fd5b50565b60008135905061299e81612978565b92915050565b600080604083850312156129bb576129ba612739565b5b60006129c98582860161298f565b92505060206129da858286016128da565b9150509250929050565b600080fd5b600080fd5b7f4e487b7100000000000000000000000000000000000000000000000000000000600052604160045260246000fd5b612a268261284d565b810181811067ffffffffffffffff82111715612a4557612a446129ee565b5b80604052505050565b6000612a5861272f565b9050612a648282612a1d565b919050565b600067ffffffffffffffff821115612a8457612a836129ee565b5b612a8d8261284d565b9050602081019050919050565b82818337600083830152505050565b6000612abc612ab784612a69565b612a4e565b905082815260208101848484011115612ad857612ad76129e9565b5b612ae3848285612a9a565b509392505050565b600082601f830112612b0057612aff6129e4565b5b8135612b10848260208601612aa9565b91505092915050565b600080600080600060a08688031215612b3557612b34612739565b5b6000612b438882890161298f565b9550506020612b54888289016128da565b945050604086013567ffffffffffffffff811115612b7557612b7461273e565b5b612b8188828901612aeb565b9350506060612b92888289016128da565b925050608086013567ffffffffffffffff811115612bb357612bb261273e565b5b612bbf88828901612aeb565b9150509295509295909350565b600060208284031215612be257612be1612739565b5b6000612bf08482850161298f565b91505092915050565b612c02816128b9565b82525050565b6000602082019050612c1d6000830184612bf9565b92915050565b600080600060608486031215612c3c57612c3b612739565b5b6000612c4a8682870161298f565b9350506020612c5b8682870161298f565b9250506040612c6c868287016128da565b9150509250925092565b60006060820190508181036000830152612c90818661285e565b9050612c9f6020830185612bf9565b8181036040830152612cb1818461285e565b9050949350505050565b60008060008060808587031215612cd557612cd4612739565b5b6000612ce3878288016128da565b945050602085013567ffffffffffffffff811115612d0457612d0361273e565b5b612d1087828801612aeb565b9350506040612d21878288016128da565b925050606085013567ffffffffffffffff811115612d4257612d4161273e565b5b612d4e87828801612aeb565b91505092959194509250565b612d63816127c8565b8114612d6e57600080fd5b50565b600081359050612d8081612d5a565b92915050565b60008060408385031215612d9d57612d9c612739565b5b6000612dab8582860161298f565b9250506020612dbc85828601612d71565b9150509250929050565b600067ffffffffffffffff821115612de157612de06129ee565b5b612dea8261284d565b9050602081019050919050565b6000612e0a612e0584612dc6565b612a4e565b905082815260208101848484011115612e2657612e256129e9565b5b612e31848285612a9a565b509392505050565b600082601f830112612e4e57612e4d6129e4565b5b8135612e5e848260208601612df7565b91505092915050565b60008060008060808587031215612e8157612e80612739565b5b6000612e8f8782880161298f565b9450506020612ea08782880161298f565b9350506040612eb1878288016128da565b925050606085013567ffffffffffffffff811115612ed257612ed161273e565b5b612ede87828801612e39565b91505092959194509250565b60008060408385031215612f0157612f00612739565b5b6000612f0f8582860161298f565b9250506020612f208582860161298f565b9150509250929050565b7f4e487b7100000000000000000000000000000000000000000000000000000000600052602260045260246000fd5b60006002820490506001821680612f7157607f821691505b60208210811415612f8557612f84612f2a565b5b50919050565b7f4552433732313a20617070726f76656420717565727920666f72206e6f6e657860008201527f697374656e7420746f6b656e0000000000000000000000000000000000000000602082015250565b6000612fe7602c83612809565b9150612ff282612f8b565b604082019050919050565b6000602082019050818103600083015261301681612fda565b9050919050565b7f4552433732313a20617070726f76616c20746f2063757272656e74206f776e6560008201527f7200000000000000000000000000000000000000000000000000000000000000602082015250565b6000613079602183612809565b91506130848261301d565b604082019050919050565b600060208201905081810360008301526130a88161306c565b9050919050565b7f4552433732313a20617070726f76652063616c6c6572206973206e6f74206f7760008201527f6e6572206e6f7220617070726f76656420666f7220616c6c0000000000000000602082015250565b600061310b603883612809565b9150613116826130af565b604082019050919050565b6000602082019050818103600083015261313a816130fe565b9050919050565b7f5a65726f20616464726573730000000000000000000000000000000000000000600082015250565b6000613177600c83612809565b915061318282613141565b602082019050919050565b600060208201905081810360008301526131a68161316a565b9050919050565b7f4f6e6c792077686974656c6973742063616e206d696e74202100000000000000600082015250565b60006131e3601983612809565b91506131ee826131ad565b602082019050919050565b60006020820190508181036000830152613212816131d6565b9050919050565b7f4f776e61626c653a2063616c6c6572206973206e6f7420746865206f776e6572600082015250565b600061324f602083612809565b915061325a82613219565b602082019050919050565b6000602082019050818103600083015261327e81613242565b9050919050565b7f62616e206c69737420697320656d707479000000000000000000000000000000600082015250565b60006132bb601183612809565b91506132c682613285565b602082019050919050565b600060208201905081810360008301526132ea816132ae565b9050919050565b7f4e487b7100000000000000000000000000000000000000000000000000000000600052601160045260246000fd5b600061332b826128b9565b9150613336836128b9565b9250827fffffffffffffffffffffffffffffffffffffffffffffffffffffffffffffffff0382111561336b5761336a6132f1565b5b828201905092915050565b7f5768697465206c69737420656d70747900000000000000000000000000000000600082015250565b60006133ac601083612809565b91506133b782613376565b602082019050919050565b600060208201905081810360008301526133db8161339f565b9050919050565b60006133ed826128b9565b91506133f8836128b9565b92508282101561340b5761340a6132f1565b5b828203905092915050565b7f4552433732313a207472616e736665722063616c6c6572206973206e6f74206f60008201527f776e6572206e6f7220617070726f766564000000000000000000000000000000602082015250565b6000613472603183612809565b915061347d82613416565b604082019050919050565b600060208201905081810360008301526134a181613465565b9050919050565b7f4552433732313a206f776e657220717565727920666f72206e6f6e657869737460008201527f656e7420746f6b656e0000000000000000000000000000000000000000000000602082015250565b6000613504602983612809565b915061350f826134a8565b604082019050919050565b60006020820190508181036000830152613533816134f7565b9050919050565b7f546f6b656e204964206e6f6e2d65786973740000000000000000000000000000600082015250565b6000613570601283612809565b915061357b8261353a565b602082019050919050565b6000602082019050818103600083015261359f81613563565b9050919050565b7f4552433732313a2062616c616e636520717565727920666f7220746865207a6560008201527f726f206164647265737300000000000000000000000000000000000000000000602082015250565b6000613602602a83612809565b915061360d826135a6565b604082019050919050565b60006020820190508181036000830152613631816135f5565b9050919050565b7f4552433732313a20617070726f766520746f2063616c6c657200000000000000600082015250565b600061366e601983612809565b915061367982613638565b602082019050919050565b6000602082019050818103600083015261369d81613661565b9050919050565b7f4552433732314d657461646174613a2055524920717565727920666f72206e6f60008201527f6e6578697374656e7420746f6b656e0000000000000000000000000000000000602082015250565b6000613700602f83612809565b915061370b826136a4565b604082019050919050565b6000602082019050818103600083015261372f816136f3565b9050919050565b600081905092915050565b600061374c826127fe565b6137568185613736565b935061376681856020860161281a565b80840191505092915050565b600061377e8285613741565b915061378a8284613741565b91508190509392505050565b7f4f776e61626c653a206e6577206f776e657220697320746865207a65726f206160008201527f6464726573730000000000000000000000000000000000000000000000000000602082015250565b60006137f2602683612809565b91506137fd82613796565b604082019050919050565b60006020820190508181036000830152613821816137e5565b9050919050565b7f4552433732313a206f70657261746f7220717565727920666f72206e6f6e657860008201527f697374656e7420746f6b656e0000000000000000000000000000000000000000602082015250565b6000613884602c83612809565b915061388f82613828565b604082019050919050565b600060208201905081810360008301526138b381613877565b9050919050565b7f4552433732313a207472616e73666572206f6620746f6b656e2074686174206960008201527f73206e6f74206f776e0000000000000000000000000000000000000000000000602082015250565b6000613916602983612809565b9150613921826138ba565b604082019050919050565b6000602082019050818103600083015261394581613909565b9050919050565b7f4552433732313a207472616e7366657220746f20746865207a65726f2061646460008201527f7265737300000000000000000000000000000000000000000000000000000000602082015250565b60006139a8602483612809565b91506139b38261394c565b604082019050919050565b600060208201905081810360008301526139d78161399b565b9050919050565b7f4552433732313a207472616e7366657220746f206e6f6e20455243373231526560008201527f63656976657220696d706c656d656e7465720000000000000000000000000000602082015250565b6000613a3a603283612809565b9150613a45826139de565b604082019050919050565b60006020820190508181036000830152613a6981613a2d565b9050919050565b6000613a7b826128b9565b91507fffffffffffffffffffffffffffffffffffffffffffffffffffffffffffffffff821415613aae57613aad6132f1565b5b600182019050919050565b7f4e487b7100000000000000000000000000000000000000000000000000000000600052601260045260246000fd5b6000613af3826128b9565b9150613afe836128b9565b925082613b0e57613b0d613ab9565b5b828204905092915050565b6000613b24826128b9565b9150613b2f836128b9565b925082613b3f57613b3e613ab9565b5b828206905092915050565b7f4e487b7100000000000000000000000000000000000000000000000000000000600052603260045260246000fd5b7f42616e206c6973742063616e2774207472616e73666572000000000000000000600082015250565b6000613baf601783612809565b9150613bba82613b79565b602082019050919050565b60006020820190508181036000830152613bde81613ba2565b9050919050565b600081519050919050565b600082825260208201905092915050565b6000613c0c82613be5565b613c168185613bf0565b9350613c2681856020860161281a565b613c2f8161284d565b840191505092915050565b6000608082019050613c4f600083018761294e565b613c5c602083018661294e565b613c696040830185612bf9565b8181036060830152613c7b8184613c01565b905095945050505050565b600081519050613c958161276f565b92915050565b600060208284031215613cb157613cb0612739565b5b6000613cbf84828501613c86565b91505092915050565b7f4552433732313a206d696e7420746f20746865207a65726f2061646472657373600082015250565b6000613cfe602083612809565b9150613d0982613cc8565b602082019050919050565b60006020820190508181036000830152613d2d81613cf1565b9050919050565b7f4552433732313a20746f6b656e20616c7265616479206d696e74656400000000600082015250565b6000613d6a601c83612809565b9150613d7582613d34565b602082019050919050565b60006020820190508181036000830152613d9981613d5d565b905091905056fea26469706673582212204ce348f6630e7dbb57adc58fb19be37536c43dd58259948a28d4f4064853bd5864736f6c634300080a0033",
  "immutableReferences": {},
  "source": "// SPDX-License-Identifier: MIT\npragma solidity ^0.8.2;\n\nimport \"@openzeppelin/contracts/token/ERC721/ERC721.sol\";\nimport \"@openzeppelin/contracts/access/Ownable.sol\";\n\ncontract NFT is ERC721, Ownable {\n    constructor() ERC721(\"NeKo\", \"NK\") {}\n\n\n    mapping(address => bool) private whiteLists;\n\n    mapping(uint256 => MetaData) public metadataNft;\n    mapping(address => bool) private banLists;\n\n    uint256 public whitelistCounter = 0;\n    uint256 public banlistCounter = 0;\n    \n    // event update nft\n    event updateNFT(string name, uint price, string power);\n    // event set whitelist\n    event setWhiteListStatus(address user);\n    // event remove user from white list\n    event removeWhiteListStatus(address user);\n    // event set ban list\n    event setBanListStatus(address user);\n    // event remove user from ban list\n    event removeBanListStatus(address user);\n    //\n    event reset(string message);\n\n\n    // defined NFT\n    struct MetaData {\n        string name;\n        uint256 price;\n        string power;\n    }\n    // add white list address\n    function setWhiteList (address user) public onlyOwner {\n        require(user != address(0), \"Zero address\");\n        whiteLists[user] = true;\n        whitelistCounter += 1;\n        \n        emit setWhiteListStatus(user);\n    }\n    // remove from whitelist\n    function removeWhiteList(address user) public onlyOwner {\n        require(user != address(0), \"Zero address\");\n        require(whitelistCounter > 0, \"White list empty\");\n\n        delete whiteLists[user];\n\n        whitelistCounter -= 1;\n        emit removeWhiteListStatus(user);\n    }\n    //\n    function wlCounter() public view returns(uint256){\n        return whitelistCounter;\n    }\n    //\n    function safeMint(address to, uint256 tokenId, string memory name, uint256 price, string memory power) public{\n        require(to != address(0), \"Zero address\");\n        require(whiteLists[to] == true, \"Only whitelist can mint !\");\n        MetaData memory nft = MetaData(name, price, power);\n        \n        _safeMint(to, tokenId);\n        \n        metadataNft[tokenId] = nft;\n    }\n    //\n    // update nft\n    \n    function updatenft( uint256 tokenId, string memory new_name, uint new_price, string memory new_power) public onlyOwner {\n        \n        require(_exists(tokenId), \"Token Id non-exist\");\n        \n        MetaData storage nft = metadataNft[tokenId];\n    \n        nft.name = new_name;\n        nft.price = new_price;\n        nft.power = new_power;\n        \n        emit updateNFT(new_name, new_price, new_power);\n    }\n    //\n    function setBanList(address user) public onlyOwner {\n        require(user != address(0), \"Zero address\");\n        banLists[user] = true;\n        banlistCounter += 1;\n        emit setBanListStatus(user);\n    }\n    //\n    function unBanList(address user) public onlyOwner {\n        require(user != address(0), \"Zero address\");\n        require(banlistCounter > 0, \"ban list is empty\");\n\n        delete banLists[user];\n        banlistCounter += 1;\n        emit removeBanListStatus(user);\n    }\n     //\n    //\n    function _beforeTokenTransfer( address from, address to, uint256 tokenId) internal virtual override {\n        \n        require(!banLists[from] && !banLists[to], \"Ban list can't transfer\");\n    }\n}",
  "sourcePath": "/Users/minhdo/Documents/study/BlockChain/NFT/nft-web3js/contracts/NFT.sol",
  "compiler": {
    "name": "solc",
    "version": "0.8.10+commit.fc410830.Emscripten.clang"
  },
  "schemaVersion": "3.4.3",
  "updatedAt": "2021-11-27T08:43:42.697Z",
  "networkType": "ethereum",
  "devdoc": {
    "kind": "dev",
    "methods": {
      "approve(address,uint256)": {
        "details": "See {IERC721-approve}."
      },
      "balanceOf(address)": {
        "details": "See {IERC721-balanceOf}."
      },
      "getApproved(uint256)": {
        "details": "See {IERC721-getApproved}."
      },
      "isApprovedForAll(address,address)": {
        "details": "See {IERC721-isApprovedForAll}."
      },
      "name()": {
        "details": "See {IERC721Metadata-name}."
      },
      "owner()": {
        "details": "Returns the address of the current owner."
      },
      "ownerOf(uint256)": {
        "details": "See {IERC721-ownerOf}."
      },
      "renounceOwnership()": {
        "details": "Leaves the contract without owner. It will not be possible to call `onlyOwner` functions anymore. Can only be called by the current owner. NOTE: Renouncing ownership will leave the contract without an owner, thereby removing any functionality that is only available to the owner."
      },
      "safeTransferFrom(address,address,uint256)": {
        "details": "See {IERC721-safeTransferFrom}."
      },
      "safeTransferFrom(address,address,uint256,bytes)": {
        "details": "See {IERC721-safeTransferFrom}."
      },
      "setApprovalForAll(address,bool)": {
        "details": "See {IERC721-setApprovalForAll}."
      },
      "supportsInterface(bytes4)": {
        "details": "See {IERC165-supportsInterface}."
      },
      "symbol()": {
        "details": "See {IERC721Metadata-symbol}."
      },
      "tokenURI(uint256)": {
        "details": "See {IERC721Metadata-tokenURI}."
      },
      "transferFrom(address,address,uint256)": {
        "details": "See {IERC721-transferFrom}."
      },
      "transferOwnership(address)": {
        "details": "Transfers ownership of the contract to a new account (`newOwner`). Can only be called by the current owner."
      }
    },
    "version": 1
  },
  "userdoc": {
    "kind": "user",
    "methods": {},
    "version": 1
  }
}