{
  "contractName": "NFT",
  "abi": [
    {
      "inputs": [],
      "stateMutability": "nonpayable",
      "type": "constructor"
    },
    {
      "anonymous": false,
      "inputs": [
        {
          "indexed": true,
          "internalType": "address",
          "name": "owner",
          "type": "address"
        },
        {
          "indexed": true,
          "internalType": "address",
          "name": "approved",
          "type": "address"
        },
        {
          "indexed": true,
          "internalType": "uint256",
          "name": "tokenId",
          "type": "uint256"
        }
      ],
      "name": "Approval",
      "type": "event"
    },
    {
      "anonymous": false,
      "inputs": [
        {
          "indexed": true,
          "internalType": "address",
          "name": "owner",
          "type": "address"
        },
        {
          "indexed": true,
          "internalType": "address",
          "name": "operator",
          "type": "address"
        },
        {
          "indexed": false,
          "internalType": "bool",
          "name": "approved",
          "type": "bool"
        }
      ],
      "name": "ApprovalForAll",
      "type": "event"
    },
    {
      "anonymous": false,
      "inputs": [
        {
          "indexed": true,
          "internalType": "address",
          "name": "previousOwner",
          "type": "address"
        },
        {
          "indexed": true,
          "internalType": "address",
          "name": "newOwner",
          "type": "address"
        }
      ],
      "name": "OwnershipTransferred",
      "type": "event"
    },
    {
      "anonymous": false,
      "inputs": [
        {
          "indexed": true,
          "internalType": "address",
          "name": "from",
          "type": "address"
        },
        {
          "indexed": true,
          "internalType": "address",
          "name": "to",
          "type": "address"
        },
        {
          "indexed": true,
          "internalType": "uint256",
          "name": "tokenId",
          "type": "uint256"
        }
      ],
      "name": "Transfer",
      "type": "event"
    },
    {
      "anonymous": false,
      "inputs": [
        {
          "indexed": false,
          "internalType": "address",
          "name": "user",
          "type": "address"
        }
      ],
      "name": "removeBanListStatus",
      "type": "event"
    },
    {
      "anonymous": false,
      "inputs": [
        {
          "indexed": false,
          "internalType": "address",
          "name": "user",
          "type": "address"
        }
      ],
      "name": "removeWhiteListStatus",
      "type": "event"
    },
    {
      "anonymous": false,
      "inputs": [
        {
          "indexed": false,
          "internalType": "string",
          "name": "message",
          "type": "string"
        }
      ],
      "name": "reset",
      "type": "event"
    },
    {
      "anonymous": false,
      "inputs": [
        {
          "indexed": false,
          "internalType": "address",
          "name": "user",
          "type": "address"
        }
      ],
      "name": "setBanListStatus",
      "type": "event"
    },
    {
      "anonymous": false,
      "inputs": [
        {
          "indexed": false,
          "internalType": "address",
          "name": "user",
          "type": "address"
        }
      ],
      "name": "setWhiteListStatus",
      "type": "event"
    },
    {
      "anonymous": false,
      "inputs": [
        {
          "indexed": false,
          "internalType": "string",
          "name": "name",
          "type": "string"
        },
        {
          "indexed": false,
          "internalType": "uint256",
          "name": "price",
          "type": "uint256"
        },
        {
          "indexed": false,
          "internalType": "string",
          "name": "power",
          "type": "string"
        }
      ],
      "name": "updateNFT",
      "type": "event"
    },
    {
      "inputs": [
        {
          "internalType": "address",
          "name": "to",
          "type": "address"
        },
        {
          "internalType": "uint256",
          "name": "tokenId",
          "type": "uint256"
        }
      ],
      "name": "approve",
      "outputs": [],
      "stateMutability": "nonpayable",
      "type": "function"
    },
    {
      "inputs": [
        {
          "internalType": "address",
          "name": "owner",
          "type": "address"
        }
      ],
      "name": "balanceOf",
      "outputs": [
        {
          "internalType": "uint256",
          "name": "",
          "type": "uint256"
        }
      ],
      "stateMutability": "view",
      "type": "function",
      "constant": true
    },
    {
      "inputs": [],
      "name": "banlistCounter",
      "outputs": [
        {
          "internalType": "uint256",
          "name": "",
          "type": "uint256"
        }
      ],
      "stateMutability": "view",
      "type": "function",
      "constant": true
    },
    {
      "inputs": [
        {
          "internalType": "uint256",
          "name": "tokenId",
          "type": "uint256"
        }
      ],
      "name": "getApproved",
      "outputs": [
        {
          "internalType": "address",
          "name": "",
          "type": "address"
        }
      ],
      "stateMutability": "view",
      "type": "function",
      "constant": true
    },
    {
      "inputs": [
        {
          "internalType": "address",
          "name": "owner",
          "type": "address"
        },
        {
          "internalType": "address",
          "name": "operator",
          "type": "address"
        }
      ],
      "name": "isApprovedForAll",
      "outputs": [
        {
          "internalType": "bool",
          "name": "",
          "type": "bool"
        }
      ],
      "stateMutability": "view",
      "type": "function",
      "constant": true
    },
    {
      "inputs": [
        {
          "internalType": "uint256",
          "name": "",
          "type": "uint256"
        }
      ],
      "name": "metadataNft",
      "outputs": [
        {
          "internalType": "string",
          "name": "name",
          "type": "string"
        },
        {
          "internalType": "uint256",
          "name": "price",
          "type": "uint256"
        },
        {
          "internalType": "string",
          "name": "power",
          "type": "string"
        }
      ],
      "stateMutability": "view",
      "type": "function",
      "constant": true
    },
    {
      "inputs": [],
      "name": "name",
      "outputs": [
        {
          "internalType": "string",
          "name": "",
          "type": "string"
        }
      ],
      "stateMutability": "view",
      "type": "function",
      "constant": true
    },
    {
      "inputs": [],
      "name": "owner",
      "outputs": [
        {
          "internalType": "address",
          "name": "",
          "type": "address"
        }
      ],
      "stateMutability": "view",
      "type": "function",
      "constant": true
    },
    {
      "inputs": [
        {
          "internalType": "uint256",
          "name": "tokenId",
          "type": "uint256"
        }
      ],
      "name": "ownerOf",
      "outputs": [
        {
          "internalType": "address",
          "name": "",
          "type": "address"
        }
      ],
      "stateMutability": "view",
      "type": "function",
      "constant": true
    },
    {
      "inputs": [],
      "name": "renounceOwnership",
      "outputs": [],
      "stateMutability": "nonpayable",
      "type": "function"
    },
    {
      "inputs": [
        {
          "internalType": "address",
          "name": "from",
          "type": "address"
        },
        {
          "internalType": "address",
          "name": "to",
          "type": "address"
        },
        {
          "internalType": "uint256",
          "name": "tokenId",
          "type": "uint256"
        }
      ],
      "name": "safeTransferFrom",
      "outputs": [],
      "stateMutability": "nonpayable",
      "type": "function"
    },
    {
      "inputs": [
        {
          "internalType": "address",
          "name": "from",
          "type": "address"
        },
        {
          "internalType": "address",
          "name": "to",
          "type": "address"
        },
        {
          "internalType": "uint256",
          "name": "tokenId",
          "type": "uint256"
        },
        {
          "internalType": "bytes",
          "name": "_data",
          "type": "bytes"
        }
      ],
      "name": "safeTransferFrom",
      "outputs": [],
      "stateMutability": "nonpayable",
      "type": "function"
    },
    {
      "inputs": [
        {
          "internalType": "address",
          "name": "operator",
          "type": "address"
        },
        {
          "internalType": "bool",
          "name": "approved",
          "type": "bool"
        }
      ],
      "name": "setApprovalForAll",
      "outputs": [],
      "stateMutability": "nonpayable",
      "type": "function"
    },
    {
      "inputs": [
        {
          "internalType": "bytes4",
          "name": "interfaceId",
          "type": "bytes4"
        }
      ],
      "name": "supportsInterface",
      "outputs": [
        {
          "internalType": "bool",
          "name": "",
          "type": "bool"
        }
      ],
      "stateMutability": "view",
      "type": "function",
      "constant": true
    },
    {
      "inputs": [],
      "name": "symbol",
      "outputs": [
        {
          "internalType": "string",
          "name": "",
          "type": "string"
        }
      ],
      "stateMutability": "view",
      "type": "function",
      "constant": true
    },
    {
      "inputs": [
        {
          "internalType": "uint256",
          "name": "tokenId",
          "type": "uint256"
        }
      ],
      "name": "tokenURI",
      "outputs": [
        {
          "internalType": "string",
          "name": "",
          "type": "string"
        }
      ],
      "stateMutability": "view",
      "type": "function",
      "constant": true
    },
    {
      "inputs": [
        {
          "internalType": "address",
          "name": "from",
          "type": "address"
        },
        {
          "internalType": "address",
          "name": "to",
          "type": "address"
        },
        {
          "internalType": "uint256",
          "name": "tokenId",
          "type": "uint256"
        }
      ],
      "name": "transferFrom",
      "outputs": [],
      "stateMutability": "nonpayable",
      "type": "function"
    },
    {
      "inputs": [
        {
          "internalType": "address",
          "name": "newOwner",
          "type": "address"
        }
      ],
      "name": "transferOwnership",
      "outputs": [],
      "stateMutability": "nonpayable",
      "type": "function"
    },
    {
      "inputs": [],
      "name": "whitelistCounter",
      "outputs": [
        {
          "internalType": "uint256",
          "name": "",
          "type": "uint256"
        }
      ],
      "stateMutability": "view",
      "type": "function",
      "constant": true
    },
    {
      "inputs": [
        {
          "internalType": "address",
          "name": "user",
          "type": "address"
        }
      ],
      "name": "setWhiteList",
      "outputs": [],
      "stateMutability": "nonpayable",
      "type": "function"
    },
    {
      "inputs": [
        {
          "internalType": "address",
          "name": "user",
          "type": "address"
        }
      ],
      "name": "removeWhiteList",
      "outputs": [],
      "stateMutability": "nonpayable",
      "type": "function"
    },
    {
      "inputs": [],
      "name": "wlCounter",
      "outputs": [
        {
          "internalType": "uint256",
          "name": "",
          "type": "uint256"
        }
      ],
      "stateMutability": "view",
      "type": "function",
      "constant": true
    },
    {
      "inputs": [
        {
          "internalType": "address",
          "name": "to",
          "type": "address"
        },
        {
          "internalType": "uint256",
          "name": "tokenId",
          "type": "uint256"
        },
        {
          "internalType": "string",
          "name": "name",
          "type": "string"
        },
        {
          "internalType": "uint256",
          "name": "price",
          "type": "uint256"
        },
        {
          "internalType": "string",
          "name": "power",
          "type": "string"
        }
      ],
      "name": "safeMint",
      "outputs": [],
      "stateMutability": "nonpayable",
      "type": "function"
    },
    {
      "inputs": [
        {
          "internalType": "uint256",
          "name": "tokenId",
          "type": "uint256"
        },
        {
          "internalType": "string",
          "name": "new_name",
          "type": "string"
        },
        {
          "internalType": "uint256",
          "name": "new_price",
          "type": "uint256"
        },
        {
          "internalType": "string",
          "name": "new_power",
          "type": "string"
        }
      ],
      "name": "updatenft",
      "outputs": [],
      "stateMutability": "nonpayable",
      "type": "function"
    },
    {
      "inputs": [
        {
          "internalType": "address",
          "name": "user",
          "type": "address"
        }
      ],
      "name": "setBanList",
      "outputs": [],
      "stateMutability": "nonpayable",
      "type": "function"
    },
    {
      "inputs": [
        {
          "internalType": "address",
          "name": "user",
          "type": "address"
        }
      ],
      "name": "unBanList",
      "outputs": [],
      "stateMutability": "nonpayable",
      "type": "function"
    }
  ],
  "bytecode": "0x60806040526000600a556000600b553480156200001b57600080fd5b506040518060400160405280600481526020017f4e654b6f000000000000000000000000000000000000000000000000000000008152506040518060400160405280600281526020017f4e4b0000000000000000000000000000000000000000000000000000000000008152508160009080519060200190620000a0929190620001b0565b508060019080519060200190620000b9929190620001b0565b505050620000dc620000d0620000e260201b60201c565b620000ea60201b60201c565b620002c5565b600033905090565b6000600660009054906101000a900473ffffffffffffffffffffffffffffffffffffffff16905081600660006101000a81548173ffffffffffffffffffffffffffffffffffffffff021916908373ffffffffffffffffffffffffffffffffffffffff1602179055508173ffffffffffffffffffffffffffffffffffffffff168173ffffffffffffffffffffffffffffffffffffffff167f8be0079c531659141344cd1fd0a4f28419497f9722a3daafe3b4186f6b6457e060405160405180910390a35050565b828054620001be906200028f565b90600052602060002090601f016020900481019282620001e257600085556200022e565b82601f10620001fd57805160ff19168380011785556200022e565b828001600101855582156200022e579182015b828111156200022d57825182559160200191906001019062000210565b5b5090506200023d919062000241565b5090565b5b808211156200025c57600081600090555060010162000242565b5090565b7f4e487b7100000000000000000000000000000000000000000000000000000000600052602260045260246000fd5b60006002820490506001821680620002a857607f821691505b60208210811415620002bf57620002be62000260565b5b50919050565b613ed680620002d56000396000f3fe608060405234801561001057600080fd5b506004361061018e5760003560e01c80636352211e116100de57806395d89b4111610097578063c87b56dd11610071578063c87b56dd14610459578063cea0d9f514610489578063e985e9c5146104a7578063f2fde38b146104d75761018e565b806395d89b4114610403578063a22cb46514610421578063b88d4fde1461043d5761018e565b80636352211e146103435780636be7293d1461037357806370a082311461038f578063713abeb9146103bf578063715018a6146103db5780638da5cb5b146103e55761018e565b80632042e5c21161014b57806326f27e6d1161012557806326f27e6d146102bb57806339e899ee146102d957806342842e0e146102f557806358bee568146103115761018e565b80632042e5c214610265578063215bf4611461028157806323b872dd1461029f5761018e565b806301ffc9a71461019357806306fdde03146101c3578063081812fc146101e1578063095ea7b3146102115780631a204df91461022d5780631b5bc13514610249575b600080fd5b6101ad60048036038101906101a8919061282f565b6104f3565b6040516101ba9190612877565b60405180910390f35b6101cb6105d5565b6040516101d8919061292b565b60405180910390f35b6101fb60048036038101906101f69190612983565b610667565b60405161020891906129f1565b60405180910390f35b61022b60048036038101906102269190612a38565b6106ec565b005b61024760048036038101906102429190612bad565b610804565b005b610263600480360381019061025e9190612c60565b610993565b005b61027f600480360381019061027a9190612c60565b610b67565b005b610289610d3b565b6040516102969190612c9c565b60405180910390f35b6102b960048036038101906102b49190612cb7565b610d45565b005b6102c3610da5565b6040516102d09190612c9c565b60405180910390f35b6102f360048036038101906102ee9190612c60565b610dab565b005b61030f600480360381019061030a9190612cb7565b610fd7565b005b61032b60048036038101906103269190612983565b610ff7565b60405161033a93929190612d0a565b60405180910390f35b61035d60048036038101906103589190612983565b611131565b60405161036a91906129f1565b60405180910390f35b61038d60048036038101906103889190612d4f565b6111e3565b005b6103a960048036038101906103a49190612c60565b61133b565b6040516103b69190612c9c565b60405180910390f35b6103d960048036038101906103d49190612c60565b6113f3565b005b6103e361158b565b005b6103ed611613565b6040516103fa91906129f1565b60405180910390f35b61040b61163d565b604051610418919061292b565b60405180910390f35b61043b60048036038101906104369190612e1a565b6116cf565b005b61045760048036038101906104529190612efb565b611850565b005b610473600480360381019061046e9190612983565b6118b2565b604051610480919061292b565b60405180910390f35b610491611959565b60405161049e9190612c9c565b60405180910390f35b6104c160048036038101906104bc9190612f7e565b61195f565b6040516104ce9190612877565b60405180910390f35b6104f160048036038101906104ec9190612c60565b6119f3565b005b60007f80ac58cd000000000000000000000000000000000000000000000000000000007bffffffffffffffffffffffffffffffffffffffffffffffffffffffff1916827bffffffffffffffffffffffffffffffffffffffffffffffffffffffff191614806105be57507f5b5e139f000000000000000000000000000000000000000000000000000000007bffffffffffffffffffffffffffffffffffffffffffffffffffffffff1916827bffffffffffffffffffffffffffffffffffffffffffffffffffffffff1916145b806105ce57506105cd82611aeb565b5b9050919050565b6060600080546105e490612fed565b80601f016020809104026020016040519081016040528092919081815260200182805461061090612fed565b801561065d5780601f106106325761010080835404028352916020019161065d565b820191906000526020600020905b81548152906001019060200180831161064057829003601f168201915b5050505050905090565b600061067282611b55565b6106b1576040517f08c379a00000000000000000000000000000000000000000000000000000000081526004016106a890613091565b60405180910390fd5b6004600083815260200190815260200160002060009054906101000a900473ffffffffffffffffffffffffffffffffffffffff169050919050565b60006106f782611131565b90508073ffffffffffffffffffffffffffffffffffffffff168373ffffffffffffffffffffffffffffffffffffffff161415610768576040517f08c379a000000000000000000000000000000000000000000000000000000000815260040161075f90613123565b60405180910390fd5b8073ffffffffffffffffffffffffffffffffffffffff16610787611bc1565b73ffffffffffffffffffffffffffffffffffffffff1614806107b657506107b5816107b0611bc1565b61195f565b5b6107f5576040517f08c379a00000000000000000000000000000000000000000000000000000000081526004016107ec906131b5565b60405180910390fd5b6107ff8383611bc9565b505050565b600073ffffffffffffffffffffffffffffffffffffffff168573ffffffffffffffffffffffffffffffffffffffff161415610874576040517f08c379a000000000000000000000000000000000000000000000000000000000815260040161086b90613221565b60405180910390fd5b60011515600760008773ffffffffffffffffffffffffffffffffffffffff1673ffffffffffffffffffffffffffffffffffffffff16815260200190815260200160002060009054906101000a900460ff16151514610907576040517f08c379a00000000000000000000000000000000000000000000000000000000081526004016108fe9061328d565b60405180910390fd5b600060405180606001604052808581526020018481526020018381525090506109308686611c82565b80600860008781526020019081526020016000206000820151816000019080519060200190610960929190612720565b50602082015181600101556040820151816002019080519060200190610987929190612720565b50905050505050505050565b61099b611bc1565b73ffffffffffffffffffffffffffffffffffffffff166109b9611613565b73ffffffffffffffffffffffffffffffffffffffff1614610a0f576040517f08c379a0000000000000000000000000000000000000000000000000000000008152600401610a06906132f9565b60405180910390fd5b600073ffffffffffffffffffffffffffffffffffffffff168173ffffffffffffffffffffffffffffffffffffffff161415610a7f576040517f08c379a0000000000000000000000000000000000000000000000000000000008152600401610a7690613221565b60405180910390fd5b6000600b5411610ac4576040517f08c379a0000000000000000000000000000000000000000000000000000000008152600401610abb90613365565b60405180910390fd5b600960008273ffffffffffffffffffffffffffffffffffffffff1673ffffffffffffffffffffffffffffffffffffffff16815260200190815260200160002060006101000a81549060ff02191690556001600b6000828254610b2691906133b4565b925050819055507f2d6661b5671d6665ea41fabd40dcb632381b0247bba6ad0dd0f1bee806e05c2381604051610b5c91906129f1565b60405180910390a150565b610b6f611bc1565b73ffffffffffffffffffffffffffffffffffffffff16610b8d611613565b73ffffffffffffffffffffffffffffffffffffffff1614610be3576040517f08c379a0000000000000000000000000000000000000000000000000000000008152600401610bda906132f9565b60405180910390fd5b600073ffffffffffffffffffffffffffffffffffffffff168173ffffffffffffffffffffffffffffffffffffffff161415610c53576040517f08c379a0000000000000000000000000000000000000000000000000000000008152600401610c4a90613221565b60405180910390fd5b6000600a5411610c98576040517f08c379a0000000000000000000000000000000000000000000000000000000008152600401610c8f90613456565b60405180910390fd5b600760008273ffffffffffffffffffffffffffffffffffffffff1673ffffffffffffffffffffffffffffffffffffffff16815260200190815260200160002060006101000a81549060ff02191690556001600a6000828254610cfa9190613476565b925050819055507f9dbb95295d1d16c1ae787eb8f4a6259af6b1a671bb0591729d2595ddcbcc817781604051610d3091906129f1565b60405180910390a150565b6000600a54905090565b610d56610d50611bc1565b82611ca0565b610d95576040517f08c379a0000000000000000000000000000000000000000000000000000000008152600401610d8c9061351c565b60405180910390fd5b610da0838383611d7e565b505050565b600a5481565b610db3611bc1565b73ffffffffffffffffffffffffffffffffffffffff16610dd1611613565b73ffffffffffffffffffffffffffffffffffffffff1614610e27576040517f08c379a0000000000000000000000000000000000000000000000000000000008152600401610e1e906132f9565b60405180910390fd5b600073ffffffffffffffffffffffffffffffffffffffff168173ffffffffffffffffffffffffffffffffffffffff161415610e97576040517f08c379a0000000000000000000000000000000000000000000000000000000008152600401610e8e90613221565b60405180910390fd5b60011515600760008373ffffffffffffffffffffffffffffffffffffffff1673ffffffffffffffffffffffffffffffffffffffff16815260200190815260200160002060009054906101000a900460ff1615151415610f2b576040517f08c379a0000000000000000000000000000000000000000000000000000000008152600401610f2290613588565b60405180910390fd5b6001600760008373ffffffffffffffffffffffffffffffffffffffff1673ffffffffffffffffffffffffffffffffffffffff16815260200190815260200160002060006101000a81548160ff0219169083151502179055506001600a6000828254610f9691906133b4565b925050819055507f1e7df6907392ac808f34af305a213fb6cbade2a226c37680af3d2f7b1452fcd281604051610fcc91906129f1565b60405180910390a150565b610ff283838360405180602001604052806000815250611850565b505050565b600860205280600052604060002060009150905080600001805461101a90612fed565b80601f016020809104026020016040519081016040528092919081815260200182805461104690612fed565b80156110935780601f1061106857610100808354040283529160200191611093565b820191906000526020600020905b81548152906001019060200180831161107657829003601f168201915b5050505050908060010154908060020180546110ae90612fed565b80601f01602080910402602001604051908101604052809291908181526020018280546110da90612fed565b80156111275780601f106110fc57610100808354040283529160200191611127565b820191906000526020600020905b81548152906001019060200180831161110a57829003601f168201915b5050505050905083565b6000806002600084815260200190815260200160002060009054906101000a900473ffffffffffffffffffffffffffffffffffffffff169050600073ffffffffffffffffffffffffffffffffffffffff168173ffffffffffffffffffffffffffffffffffffffff1614156111da576040517f08c379a00000000000000000000000000000000000000000000000000000000081526004016111d19061361a565b60405180910390fd5b80915050919050565b6111eb611bc1565b73ffffffffffffffffffffffffffffffffffffffff16611209611613565b73ffffffffffffffffffffffffffffffffffffffff161461125f576040517f08c379a0000000000000000000000000000000000000000000000000000000008152600401611256906132f9565b60405180910390fd5b61126884611b55565b6112a7576040517f08c379a000000000000000000000000000000000000000000000000000000000815260040161129e90613686565b60405180910390fd5b6000600860008681526020019081526020016000209050838160000190805190602001906112d6929190612720565b50828160010181905550818160020190805190602001906112f8929190612720565b507fa76aba151cbc203d9805e5939c82127150ae8ace621cb510ce51676834c52f5f84848460405161132c93929190612d0a565b60405180910390a15050505050565b60008073ffffffffffffffffffffffffffffffffffffffff168273ffffffffffffffffffffffffffffffffffffffff1614156113ac576040517f08c379a00000000000000000000000000000000000000000000000000000000081526004016113a390613718565b60405180910390fd5b600360008373ffffffffffffffffffffffffffffffffffffffff1673ffffffffffffffffffffffffffffffffffffffff168152602001908152602001600020549050919050565b6113fb611bc1565b73ffffffffffffffffffffffffffffffffffffffff16611419611613565b73ffffffffffffffffffffffffffffffffffffffff161461146f576040517f08c379a0000000000000000000000000000000000000000000000000000000008152600401611466906132f9565b60405180910390fd5b600073ffffffffffffffffffffffffffffffffffffffff168173ffffffffffffffffffffffffffffffffffffffff1614156114df576040517f08c379a00000000000000000000000000000000000000000000000000000000081526004016114d690613221565b60405180910390fd5b6001600960008373ffffffffffffffffffffffffffffffffffffffff1673ffffffffffffffffffffffffffffffffffffffff16815260200190815260200160002060006101000a81548160ff0219169083151502179055506001600b600082825461154a91906133b4565b925050819055507f3c9e52ce7487bb32cf5992209ecae917ef078ea9c667a9870a5dd0fc13452a088160405161158091906129f1565b60405180910390a150565b611593611bc1565b73ffffffffffffffffffffffffffffffffffffffff166115b1611613565b73ffffffffffffffffffffffffffffffffffffffff1614611607576040517f08c379a00000000000000000000000000000000000000000000000000000000081526004016115fe906132f9565b60405180910390fd5b6116116000611fda565b565b6000600660009054906101000a900473ffffffffffffffffffffffffffffffffffffffff16905090565b60606001805461164c90612fed565b80601f016020809104026020016040519081016040528092919081815260200182805461167890612fed565b80156116c55780601f1061169a576101008083540402835291602001916116c5565b820191906000526020600020905b8154815290600101906020018083116116a857829003601f168201915b5050505050905090565b6116d7611bc1565b73ffffffffffffffffffffffffffffffffffffffff168273ffffffffffffffffffffffffffffffffffffffff161415611745576040517f08c379a000000000000000000000000000000000000000000000000000000000815260040161173c90613784565b60405180910390fd5b8060056000611752611bc1565b73ffffffffffffffffffffffffffffffffffffffff1673ffffffffffffffffffffffffffffffffffffffff16815260200190815260200160002060008473ffffffffffffffffffffffffffffffffffffffff1673ffffffffffffffffffffffffffffffffffffffff16815260200190815260200160002060006101000a81548160ff0219169083151502179055508173ffffffffffffffffffffffffffffffffffffffff166117ff611bc1565b73ffffffffffffffffffffffffffffffffffffffff167f17307eab39ab6107e8899845ad3d59bd9653f200f220920489ca2b5937696c31836040516118449190612877565b60405180910390a35050565b61186161185b611bc1565b83611ca0565b6118a0576040517f08c379a00000000000000000000000000000000000000000000000000000000081526004016118979061351c565b60405180910390fd5b6118ac848484846120a0565b50505050565b60606118bd82611b55565b6118fc576040517f08c379a00000000000000000000000000000000000000000000000000000000081526004016118f390613816565b60405180910390fd5b60006119066120fc565b905060008151116119265760405180602001604052806000815250611951565b8061193084612113565b604051602001611941929190613872565b6040516020818303038152906040525b915050919050565b600b5481565b6000600560008473ffffffffffffffffffffffffffffffffffffffff1673ffffffffffffffffffffffffffffffffffffffff16815260200190815260200160002060008373ffffffffffffffffffffffffffffffffffffffff1673ffffffffffffffffffffffffffffffffffffffff16815260200190815260200160002060009054906101000a900460ff16905092915050565b6119fb611bc1565b73ffffffffffffffffffffffffffffffffffffffff16611a19611613565b73ffffffffffffffffffffffffffffffffffffffff1614611a6f576040517f08c379a0000000000000000000000000000000000000000000000000000000008152600401611a66906132f9565b60405180910390fd5b600073ffffffffffffffffffffffffffffffffffffffff168173ffffffffffffffffffffffffffffffffffffffff161415611adf576040517f08c379a0000000000000000000000000000000000000000000000000000000008152600401611ad690613908565b60405180910390fd5b611ae881611fda565b50565b60007f01ffc9a7000000000000000000000000000000000000000000000000000000007bffffffffffffffffffffffffffffffffffffffffffffffffffffffff1916827bffffffffffffffffffffffffffffffffffffffffffffffffffffffff1916149050919050565b60008073ffffffffffffffffffffffffffffffffffffffff166002600084815260200190815260200160002060009054906101000a900473ffffffffffffffffffffffffffffffffffffffff1673ffffffffffffffffffffffffffffffffffffffff1614159050919050565b600033905090565b816004600083815260200190815260200160002060006101000a81548173ffffffffffffffffffffffffffffffffffffffff021916908373ffffffffffffffffffffffffffffffffffffffff160217905550808273ffffffffffffffffffffffffffffffffffffffff16611c3c83611131565b73ffffffffffffffffffffffffffffffffffffffff167f8c5be1e5ebec7d5bd14f71427d1e84f3dd0314c0f7b2291e5b200ac8c7c3b92560405160405180910390a45050565b611c9c828260405180602001604052806000815250612274565b5050565b6000611cab82611b55565b611cea576040517f08c379a0000000000000000000000000000000000000000000000000000000008152600401611ce19061399a565b60405180910390fd5b6000611cf583611131565b90508073ffffffffffffffffffffffffffffffffffffffff168473ffffffffffffffffffffffffffffffffffffffff161480611d6457508373ffffffffffffffffffffffffffffffffffffffff16611d4c84610667565b73ffffffffffffffffffffffffffffffffffffffff16145b80611d755750611d74818561195f565b5b91505092915050565b8273ffffffffffffffffffffffffffffffffffffffff16611d9e82611131565b73ffffffffffffffffffffffffffffffffffffffff1614611df4576040517f08c379a0000000000000000000000000000000000000000000000000000000008152600401611deb90613a2c565b60405180910390fd5b600073ffffffffffffffffffffffffffffffffffffffff168273ffffffffffffffffffffffffffffffffffffffff161415611e64576040517f08c379a0000000000000000000000000000000000000000000000000000000008152600401611e5b90613abe565b60405180910390fd5b611e6f8383836122cf565b611e7a600082611bc9565b6001600360008573ffffffffffffffffffffffffffffffffffffffff1673ffffffffffffffffffffffffffffffffffffffff1681526020019081526020016000206000828254611eca9190613476565b925050819055506001600360008473ffffffffffffffffffffffffffffffffffffffff1673ffffffffffffffffffffffffffffffffffffffff1681526020019081526020016000206000828254611f2191906133b4565b92505081905550816002600083815260200190815260200160002060006101000a81548173ffffffffffffffffffffffffffffffffffffffff021916908373ffffffffffffffffffffffffffffffffffffffff160217905550808273ffffffffffffffffffffffffffffffffffffffff168473ffffffffffffffffffffffffffffffffffffffff167fddf252ad1be2c89b69c2b068fc378daa952ba7f163c4a11628f55a4df523b3ef60405160405180910390a4505050565b6000600660009054906101000a900473ffffffffffffffffffffffffffffffffffffffff16905081600660006101000a81548173ffffffffffffffffffffffffffffffffffffffff021916908373ffffffffffffffffffffffffffffffffffffffff1602179055508173ffffffffffffffffffffffffffffffffffffffff168173ffffffffffffffffffffffffffffffffffffffff167f8be0079c531659141344cd1fd0a4f28419497f9722a3daafe3b4186f6b6457e060405160405180910390a35050565b6120ab848484611d7e565b6120b7848484846123b7565b6120f6576040517f08c379a00000000000000000000000000000000000000000000000000000000081526004016120ed90613b50565b60405180910390fd5b50505050565b606060405180602001604052806000815250905090565b6060600082141561215b576040518060400160405280600181526020017f3000000000000000000000000000000000000000000000000000000000000000815250905061226f565b600082905060005b6000821461218d57808061217690613b70565b915050600a826121869190613be8565b9150612163565b60008167ffffffffffffffff8111156121a9576121a8612a82565b5b6040519080825280601f01601f1916602001820160405280156121db5781602001600182028036833780820191505090505b5090505b60008514612268576001826121f49190613476565b9150600a856122039190613c19565b603061220f91906133b4565b60f81b81838151811061222557612224613c4a565b5b60200101907effffffffffffffffffffffffffffffffffffffffffffffffffffffffffffff1916908160001a905350600a856122619190613be8565b94506121df565b8093505050505b919050565b61227e838361253f565b61228b60008484846123b7565b6122ca576040517f08c379a00000000000000000000000000000000000000000000000000000000081526004016122c190613b50565b60405180910390fd5b505050565b600960008473ffffffffffffffffffffffffffffffffffffffff1673ffffffffffffffffffffffffffffffffffffffff16815260200190815260200160002060009054906101000a900460ff161580156123735750600960008373ffffffffffffffffffffffffffffffffffffffff1673ffffffffffffffffffffffffffffffffffffffff16815260200190815260200160002060009054906101000a900460ff16155b6123b2576040517f08c379a00000000000000000000000000000000000000000000000000000000081526004016123a990613cc5565b60405180910390fd5b505050565b60006123d88473ffffffffffffffffffffffffffffffffffffffff1661270d565b15612532578373ffffffffffffffffffffffffffffffffffffffff1663150b7a02612401611bc1565b8786866040518563ffffffff1660e01b81526004016124239493929190613d3a565b6020604051808303816000875af192505050801561245f57506040513d601f19601f8201168201806040525081019061245c9190613d9b565b60015b6124e2573d806000811461248f576040519150601f19603f3d011682016040523d82523d6000602084013e612494565b606091505b506000815114156124da576040517f08c379a00000000000000000000000000000000000000000000000000000000081526004016124d190613b50565b60405180910390fd5b805181602001fd5b63150b7a0260e01b7bffffffffffffffffffffffffffffffffffffffffffffffffffffffff1916817bffffffffffffffffffffffffffffffffffffffffffffffffffffffff191614915050612537565b600190505b949350505050565b600073ffffffffffffffffffffffffffffffffffffffff168273ffffffffffffffffffffffffffffffffffffffff1614156125af576040517f08c379a00000000000000000000000000000000000000000000000000000000081526004016125a690613e14565b60405180910390fd5b6125b881611b55565b156125f8576040517f08c379a00000000000000000000000000000000000000000000000000000000081526004016125ef90613e80565b60405180910390fd5b612604600083836122cf565b6001600360008473ffffffffffffffffffffffffffffffffffffffff1673ffffffffffffffffffffffffffffffffffffffff168152602001908152602001600020600082825461265491906133b4565b92505081905550816002600083815260200190815260200160002060006101000a81548173ffffffffffffffffffffffffffffffffffffffff021916908373ffffffffffffffffffffffffffffffffffffffff160217905550808273ffffffffffffffffffffffffffffffffffffffff16600073ffffffffffffffffffffffffffffffffffffffff167fddf252ad1be2c89b69c2b068fc378daa952ba7f163c4a11628f55a4df523b3ef60405160405180910390a45050565b600080823b905060008111915050919050565b82805461272c90612fed565b90600052602060002090601f01602090048101928261274e5760008555612795565b82601f1061276757805160ff1916838001178555612795565b82800160010185558215612795579182015b82811115612794578251825591602001919060010190612779565b5b5090506127a291906127a6565b5090565b5b808211156127bf5760008160009055506001016127a7565b5090565b6000604051905090565b600080fd5b600080fd5b60007fffffffff0000000000000000000000000000000000000000000000000000000082169050919050565b61280c816127d7565b811461281757600080fd5b50565b60008135905061282981612803565b92915050565b600060208284031215612845576128446127cd565b5b60006128538482850161281a565b91505092915050565b60008115159050919050565b6128718161285c565b82525050565b600060208201905061288c6000830184612868565b92915050565b600081519050919050565b600082825260208201905092915050565b60005b838110156128cc5780820151818401526020810190506128b1565b838111156128db576000848401525b50505050565b6000601f19601f8301169050919050565b60006128fd82612892565b612907818561289d565b93506129178185602086016128ae565b612920816128e1565b840191505092915050565b6000602082019050818103600083015261294581846128f2565b905092915050565b6000819050919050565b6129608161294d565b811461296b57600080fd5b50565b60008135905061297d81612957565b92915050565b600060208284031215612999576129986127cd565b5b60006129a78482850161296e565b91505092915050565b600073ffffffffffffffffffffffffffffffffffffffff82169050919050565b60006129db826129b0565b9050919050565b6129eb816129d0565b82525050565b6000602082019050612a0660008301846129e2565b92915050565b612a15816129d0565b8114612a2057600080fd5b50565b600081359050612a3281612a0c565b92915050565b60008060408385031215612a4f57612a4e6127cd565b5b6000612a5d85828601612a23565b9250506020612a6e8582860161296e565b9150509250929050565b600080fd5b600080fd5b7f4e487b7100000000000000000000000000000000000000000000000000000000600052604160045260246000fd5b612aba826128e1565b810181811067ffffffffffffffff82111715612ad957612ad8612a82565b5b80604052505050565b6000612aec6127c3565b9050612af88282612ab1565b919050565b600067ffffffffffffffff821115612b1857612b17612a82565b5b612b21826128e1565b9050602081019050919050565b82818337600083830152505050565b6000612b50612b4b84612afd565b612ae2565b905082815260208101848484011115612b6c57612b6b612a7d565b5b612b77848285612b2e565b509392505050565b600082601f830112612b9457612b93612a78565b5b8135612ba4848260208601612b3d565b91505092915050565b600080600080600060a08688031215612bc957612bc86127cd565b5b6000612bd788828901612a23565b9550506020612be88882890161296e565b945050604086013567ffffffffffffffff811115612c0957612c086127d2565b5b612c1588828901612b7f565b9350506060612c268882890161296e565b925050608086013567ffffffffffffffff811115612c4757612c466127d2565b5b612c5388828901612b7f565b9150509295509295909350565b600060208284031215612c7657612c756127cd565b5b6000612c8484828501612a23565b91505092915050565b612c968161294d565b82525050565b6000602082019050612cb16000830184612c8d565b92915050565b600080600060608486031215612cd057612ccf6127cd565b5b6000612cde86828701612a23565b9350506020612cef86828701612a23565b9250506040612d008682870161296e565b9150509250925092565b60006060820190508181036000830152612d2481866128f2565b9050612d336020830185612c8d565b8181036040830152612d4581846128f2565b9050949350505050565b60008060008060808587031215612d6957612d686127cd565b5b6000612d778782880161296e565b945050602085013567ffffffffffffffff811115612d9857612d976127d2565b5b612da487828801612b7f565b9350506040612db58782880161296e565b925050606085013567ffffffffffffffff811115612dd657612dd56127d2565b5b612de287828801612b7f565b91505092959194509250565b612df78161285c565b8114612e0257600080fd5b50565b600081359050612e1481612dee565b92915050565b60008060408385031215612e3157612e306127cd565b5b6000612e3f85828601612a23565b9250506020612e5085828601612e05565b9150509250929050565b600067ffffffffffffffff821115612e7557612e74612a82565b5b612e7e826128e1565b9050602081019050919050565b6000612e9e612e9984612e5a565b612ae2565b905082815260208101848484011115612eba57612eb9612a7d565b5b612ec5848285612b2e565b509392505050565b600082601f830112612ee257612ee1612a78565b5b8135612ef2848260208601612e8b565b91505092915050565b60008060008060808587031215612f1557612f146127cd565b5b6000612f2387828801612a23565b9450506020612f3487828801612a23565b9350506040612f458782880161296e565b925050606085013567ffffffffffffffff811115612f6657612f656127d2565b5b612f7287828801612ecd565b91505092959194509250565b60008060408385031215612f9557612f946127cd565b5b6000612fa385828601612a23565b9250506020612fb485828601612a23565b9150509250929050565b7f4e487b7100000000000000000000000000000000000000000000000000000000600052602260045260246000fd5b6000600282049050600182168061300557607f821691505b6020821081141561301957613018612fbe565b5b50919050565b7f4552433732313a20617070726f76656420717565727920666f72206e6f6e657860008201527f697374656e7420746f6b656e0000000000000000000000000000000000000000602082015250565b600061307b602c8361289d565b91506130868261301f565b604082019050919050565b600060208201905081810360008301526130aa8161306e565b9050919050565b7f4552433732313a20617070726f76616c20746f2063757272656e74206f776e6560008201527f7200000000000000000000000000000000000000000000000000000000000000602082015250565b600061310d60218361289d565b9150613118826130b1565b604082019050919050565b6000602082019050818103600083015261313c81613100565b9050919050565b7f4552433732313a20617070726f76652063616c6c6572206973206e6f74206f7760008201527f6e6572206e6f7220617070726f76656420666f7220616c6c0000000000000000602082015250565b600061319f60388361289d565b91506131aa82613143565b604082019050919050565b600060208201905081810360008301526131ce81613192565b9050919050565b7f5a65726f20616464726573730000000000000000000000000000000000000000600082015250565b600061320b600c8361289d565b9150613216826131d5565b602082019050919050565b6000602082019050818103600083015261323a816131fe565b9050919050565b7f4f6e6c792077686974656c6973742063616e206d696e74202100000000000000600082015250565b600061327760198361289d565b915061328282613241565b602082019050919050565b600060208201905081810360008301526132a68161326a565b9050919050565b7f4f776e61626c653a2063616c6c6572206973206e6f7420746865206f776e6572600082015250565b60006132e360208361289d565b91506132ee826132ad565b602082019050919050565b60006020820190508181036000830152613312816132d6565b9050919050565b7f62616e206c69737420697320656d707479000000000000000000000000000000600082015250565b600061334f60118361289d565b915061335a82613319565b602082019050919050565b6000602082019050818103600083015261337e81613342565b9050919050565b7f4e487b7100000000000000000000000000000000000000000000000000000000600052601160045260246000fd5b60006133bf8261294d565b91506133ca8361294d565b9250827fffffffffffffffffffffffffffffffffffffffffffffffffffffffffffffffff038211156133ff576133fe613385565b5b828201905092915050565b7f5768697465206c69737420656d70747900000000000000000000000000000000600082015250565b600061344060108361289d565b915061344b8261340a565b602082019050919050565b6000602082019050818103600083015261346f81613433565b9050919050565b60006134818261294d565b915061348c8361294d565b92508282101561349f5761349e613385565b5b828203905092915050565b7f4552433732313a207472616e736665722063616c6c6572206973206e6f74206f60008201527f776e6572206e6f7220617070726f766564000000000000000000000000000000602082015250565b600061350660318361289d565b9150613511826134aa565b604082019050919050565b60006020820190508181036000830152613535816134f9565b9050919050565b7f4164647265737320616c72656164792077686974656c697374206d656d626572600082015250565b600061357260208361289d565b915061357d8261353c565b602082019050919050565b600060208201905081810360008301526135a181613565565b9050919050565b7f4552433732313a206f776e657220717565727920666f72206e6f6e657869737460008201527f656e7420746f6b656e0000000000000000000000000000000000000000000000602082015250565b600061360460298361289d565b915061360f826135a8565b604082019050919050565b60006020820190508181036000830152613633816135f7565b9050919050565b7f546f6b656e204964206e6f6e2d65786973740000000000000000000000000000600082015250565b600061367060128361289d565b915061367b8261363a565b602082019050919050565b6000602082019050818103600083015261369f81613663565b9050919050565b7f4552433732313a2062616c616e636520717565727920666f7220746865207a6560008201527f726f206164647265737300000000000000000000000000000000000000000000602082015250565b6000613702602a8361289d565b915061370d826136a6565b604082019050919050565b60006020820190508181036000830152613731816136f5565b9050919050565b7f4552433732313a20617070726f766520746f2063616c6c657200000000000000600082015250565b600061376e60198361289d565b915061377982613738565b602082019050919050565b6000602082019050818103600083015261379d81613761565b9050919050565b7f4552433732314d657461646174613a2055524920717565727920666f72206e6f60008201527f6e6578697374656e7420746f6b656e0000000000000000000000000000000000602082015250565b6000613800602f8361289d565b915061380b826137a4565b604082019050919050565b6000602082019050818103600083015261382f816137f3565b9050919050565b600081905092915050565b600061384c82612892565b6138568185613836565b93506138668185602086016128ae565b80840191505092915050565b600061387e8285613841565b915061388a8284613841565b91508190509392505050565b7f4f776e61626c653a206e6577206f776e657220697320746865207a65726f206160008201527f6464726573730000000000000000000000000000000000000000000000000000602082015250565b60006138f260268361289d565b91506138fd82613896565b604082019050919050565b60006020820190508181036000830152613921816138e5565b9050919050565b7f4552433732313a206f70657261746f7220717565727920666f72206e6f6e657860008201527f697374656e7420746f6b656e0000000000000000000000000000000000000000602082015250565b6000613984602c8361289d565b915061398f82613928565b604082019050919050565b600060208201905081810360008301526139b381613977565b9050919050565b7f4552433732313a207472616e73666572206f6620746f6b656e2074686174206960008201527f73206e6f74206f776e0000000000000000000000000000000000000000000000602082015250565b6000613a1660298361289d565b9150613a21826139ba565b604082019050919050565b60006020820190508181036000830152613a4581613a09565b9050919050565b7f4552433732313a207472616e7366657220746f20746865207a65726f2061646460008201527f7265737300000000000000000000000000000000000000000000000000000000602082015250565b6000613aa860248361289d565b9150613ab382613a4c565b604082019050919050565b60006020820190508181036000830152613ad781613a9b565b9050919050565b7f4552433732313a207472616e7366657220746f206e6f6e20455243373231526560008201527f63656976657220696d706c656d656e7465720000000000000000000000000000602082015250565b6000613b3a60328361289d565b9150613b4582613ade565b604082019050919050565b60006020820190508181036000830152613b6981613b2d565b9050919050565b6000613b7b8261294d565b91507fffffffffffffffffffffffffffffffffffffffffffffffffffffffffffffffff821415613bae57613bad613385565b5b600182019050919050565b7f4e487b7100000000000000000000000000000000000000000000000000000000600052601260045260246000fd5b6000613bf38261294d565b9150613bfe8361294d565b925082613c0e57613c0d613bb9565b5b828204905092915050565b6000613c248261294d565b9150613c2f8361294d565b925082613c3f57613c3e613bb9565b5b828206905092915050565b7f4e487b7100000000000000000000000000000000000000000000000000000000600052603260045260246000fd5b7f42616e206c6973742063616e2774207472616e73666572000000000000000000600082015250565b6000613caf60178361289d565b9150613cba82613c79565b602082019050919050565b60006020820190508181036000830152613cde81613ca2565b9050919050565b600081519050919050565b600082825260208201905092915050565b6000613d0c82613ce5565b613d168185613cf0565b9350613d268185602086016128ae565b613d2f816128e1565b840191505092915050565b6000608082019050613d4f60008301876129e2565b613d5c60208301866129e2565b613d696040830185612c8d565b8181036060830152613d7b8184613d01565b905095945050505050565b600081519050613d9581612803565b92915050565b600060208284031215613db157613db06127cd565b5b6000613dbf84828501613d86565b91505092915050565b7f4552433732313a206d696e7420746f20746865207a65726f2061646472657373600082015250565b6000613dfe60208361289d565b9150613e0982613dc8565b602082019050919050565b60006020820190508181036000830152613e2d81613df1565b9050919050565b7f4552433732313a20746f6b656e20616c7265616479206d696e74656400000000600082015250565b6000613e6a601c8361289d565b9150613e7582613e34565b602082019050919050565b60006020820190508181036000830152613e9981613e5d565b905091905056fea2646970667358221220ddcf65695a505d00752a37834b4496e8d858d71bf25e829c1d6d2d4bdf38780b64736f6c634300080a0033",
  "immutableReferences": {},
  "source": "// SPDX-License-Identifier: MIT\npragma solidity ^0.8.2;\n\nimport \"@openzeppelin/contracts/token/ERC721/ERC721.sol\";\nimport \"@openzeppelin/contracts/access/Ownable.sol\";\n\ncontract NFT is ERC721, Ownable {\n    constructor() ERC721(\"NeKo\", \"NK\") {}\n\n\n    mapping(address => bool) private whiteLists;\n\n    mapping(uint256 => MetaData) public metadataNft;\n    mapping(address => bool) private banLists;\n\n    uint256 public whitelistCounter = 0;\n    uint256 public banlistCounter = 0;\n    \n    // event update nft\n    event updateNFT(string name, uint price, string power);\n    // event set whitelist\n    event setWhiteListStatus(address user);\n    // event remove user from white list\n    event removeWhiteListStatus(address user);\n    // event set ban list\n    event setBanListStatus(address user);\n    // event remove user from ban list\n    event removeBanListStatus(address user);\n    //\n    event reset(string message);\n\n\n    // defined NFT\n    struct MetaData {\n        string name;\n        uint256 price;\n        string power;\n    }\n    // add white list address\n    function setWhiteList (address user) public onlyOwner {\n        require(user != address(0), \"Zero address\");\n        require(whiteLists[user] != true, \"Address already whitelist member\");\n        whiteLists[user] = true;\n        whitelistCounter += 1;\n        \n        emit setWhiteListStatus(user);\n    }\n    // remove from whitelist\n    function removeWhiteList(address user) public onlyOwner {\n        require(user != address(0), \"Zero address\");\n        require(whitelistCounter > 0, \"White list empty\");\n\n        delete whiteLists[user];\n\n        whitelistCounter -= 1;\n        emit removeWhiteListStatus(user);\n    }\n    //\n    function wlCounter() public view returns(uint256){\n        return whitelistCounter;\n    }\n    //\n    function safeMint(address to, uint256 tokenId, string memory name, uint256 price, string memory power) public{\n        require(to != address(0), \"Zero address\");\n        require(whiteLists[to] == true, \"Only whitelist can mint !\");\n        MetaData memory nft = MetaData(name, price, power);\n        \n        _safeMint(to, tokenId);\n        \n        metadataNft[tokenId] = nft;\n    }\n    //\n    // update nft\n    \n    function updatenft( uint256 tokenId, string memory new_name, uint new_price, string memory new_power) public onlyOwner {\n        \n        require(_exists(tokenId), \"Token Id non-exist\");\n        \n        MetaData storage nft = metadataNft[tokenId];\n    \n        nft.name = new_name;\n        nft.price = new_price;\n        nft.power = new_power;\n        \n        emit updateNFT(new_name, new_price, new_power);\n    }\n    //\n    function setBanList(address user) public onlyOwner {\n        require(user != address(0), \"Zero address\");\n        banLists[user] = true;\n        banlistCounter += 1;\n        emit setBanListStatus(user);\n    }\n    //\n    function unBanList(address user) public onlyOwner {\n        require(user != address(0), \"Zero address\");\n        require(banlistCounter > 0, \"ban list is empty\");\n\n        delete banLists[user];\n        banlistCounter += 1;\n        emit removeBanListStatus(user);\n    }\n     //\n    //\n    function _beforeTokenTransfer( address from, address to, uint256 tokenId) internal virtual override {\n        \n        require(!banLists[from] && !banLists[to], \"Ban list can't transfer\");\n    }\n}",
  "sourcePath": "/Users/minhdo/Documents/study/BlockChain/NFT/nft-web3js/contracts/NFT.sol",
  "compiler": {
    "name": "solc",
    "version": "0.8.10+commit.fc410830.Emscripten.clang"
  },
  "schemaVersion": "3.4.3",
  "updatedAt": "2021-11-29T23:38:47.658Z",
  "networkType": "ethereum",
  "devdoc": {
    "kind": "dev",
    "methods": {
      "approve(address,uint256)": {
        "details": "See {IERC721-approve}."
      },
      "balanceOf(address)": {
        "details": "See {IERC721-balanceOf}."
      },
      "getApproved(uint256)": {
        "details": "See {IERC721-getApproved}."
      },
      "isApprovedForAll(address,address)": {
        "details": "See {IERC721-isApprovedForAll}."
      },
      "name()": {
        "details": "See {IERC721Metadata-name}."
      },
      "owner()": {
        "details": "Returns the address of the current owner."
      },
      "ownerOf(uint256)": {
        "details": "See {IERC721-ownerOf}."
      },
      "renounceOwnership()": {
        "details": "Leaves the contract without owner. It will not be possible to call `onlyOwner` functions anymore. Can only be called by the current owner. NOTE: Renouncing ownership will leave the contract without an owner, thereby removing any functionality that is only available to the owner."
      },
      "safeTransferFrom(address,address,uint256)": {
        "details": "See {IERC721-safeTransferFrom}."
      },
      "safeTransferFrom(address,address,uint256,bytes)": {
        "details": "See {IERC721-safeTransferFrom}."
      },
      "setApprovalForAll(address,bool)": {
        "details": "See {IERC721-setApprovalForAll}."
      },
      "supportsInterface(bytes4)": {
        "details": "See {IERC165-supportsInterface}."
      },
      "symbol()": {
        "details": "See {IERC721Metadata-symbol}."
      },
      "tokenURI(uint256)": {
        "details": "See {IERC721Metadata-tokenURI}."
      },
      "transferFrom(address,address,uint256)": {
        "details": "See {IERC721-transferFrom}."
      },
      "transferOwnership(address)": {
        "details": "Transfers ownership of the contract to a new account (`newOwner`). Can only be called by the current owner."
      }
    },
    "version": 1
  },
  "userdoc": {
    "kind": "user",
    "methods": {},
    "version": 1
  }
}